:020000040800F2
:1000000000800120D9650008091500080B150008BB
:100010000D1500080F15000811150008000000005C
:10002000000000000000000000000000E14F000898
:100030001315000800000000815000089F4B0008C5
:100040002166000821660008216600082166000874
:100050002166000821660008216600082166000864
:1000600021660008216600082166000815150008B1
:100070002166000821660008216600082166000844
:100080002166000821660008216600082166000834
:100090002515000821660008216600082166000871
:1000A0002166000821660008216600082166000814
:1000B0002166000821660008216600082166000804
:1000C00021660008216600082166000821660008F4
:1000D000216600083915000821660008216600081D
:1000E00021660008216600082166000821660008D4
:1000F00021660008216600082166000821660008C4
:1001000021660008216600082166000821660008B3
:1001100021660008216600082915000821660008EC
:100120002166000821660008216600082166000893
:1001300000000000000000000000000000000000BF
:1001400000000000000000000000000000000000AF
:10015000000000000000000000000000000000009F
:10016000000000000000000000000000000000008F
:10017000000000000000000000000000000000007F
:10018000000000000000000000000000000000006F
:10019000000000000000000000000000000000005F
:1001A000000000000000000000000000000000004F
:1001B000000000000000000000000000000000003F
:1001C000000000000000000000000000000000002F
:1001D000000000000000000000000000000000001F
:0401E0005FF8E0F1F3
:1001F000034613F8012B002AFBD1181A0138704767
:1002000081F0004102E000BF83F0004330B54FEAC7
:1002100041044FEA430594EA050F08BF90EA020F34
:100220001FBF54EA000C55EA020C7FEA645C7FEAC7
:10023000655C00F0E2804FEA5454D4EB5555B8BFEA
:100240006D420CDD2C4480EA020281EA030382EA5B
:10025000000083EA010180EA020281EA0303362DED
:1002600088BF30BD11F0004F4FEA01314FF4801CC0
:100270004CEA113102D0404261EB410113F0004FD2
:100280004FEA03334CEA133302D0524263EB430389
:1002900094EA050F00F0A780A4F10104D5F1200E27
:1002A0000DDB02FA0EFC22FA05F2801841F1000182
:1002B00003FA0EF2801843FA05F359410EE0A5F156
:1002C00020050EF1200E012A03FA0EFC28BF4CF087
:1002D000020C43FA05F3C01851EBE37101F000453D
:1002E00007D54FF0000EDCF1000C7EEB00006EEB4A
:1002F0000101B1F5801F1BD3B1F5001F0CD34908D4
:100300005FEA30004FEA3C0C04F101044FEA44522A
:1003100012F5800F80F09A80BCF1004F08BF5FEAB1
:10032000500C50F1000041EB045141EA050130BD91
:100330005FEA4C0C404141EB0101013C28BFB1F5A3
:10034000801FE9D291F0000F04BF01460020B1FAEE
:1003500081F308BF2033A3F10B03B3F120020CDAC1
:100360000C3208DD02F1140CC2F10C0201FA0CF09F
:1003700021FA02F10CE002F11402D8BFC2F1200C04
:1003800001FA02F120FA0CFCDCBF41EA0C019040BA
:10039000E41AA2BF01EB0451294330BD6FEA040403
:1003A0001F3C1CDA0C340EDC04F11404C4F12002EE
:1003B00020FA04F001FA02F340EA030021FA04F300
:1003C00045EA030130BDC4F10C04C4F1200220FA57
:1003D00002F001FA04F340EA0300294630BD21FA95
:1003E00004F0294630BD94F0000F83F4801306BF5B
:1003F00081F480110134013D4EE77FEA645C18BF4F
:100400007FEA655C29D094EA050F08BF90EA020FE5
:1004100005D054EA000C04BF1946104630BD91EADD
:10042000030F1EBF0021002030BD5FEA545C05D1E0
:100430004000494128BF41F0004130BD14F580041F
:100440003CBF01F5801130BD01F0004545F0FE4193
:1004500041F470014FF0000030BD7FEA645C1ABFC8
:10046000194610467FEA655C1CBF0B46024650EAFF
:10047000013406BF52EA033591EA030F41F400212B
:1004800030BD00BF90F0000F04BF0021704730B5B1
:100490004FF4806404F132044FF000054FF0000186
:1004A00050E700BF90F0000F04BF0021704730B547
:1004B0004FF4806404F1320410F0004548BF40421C
:1004C0004FF000013EE700BF42004FEAE2014FEA71
:1004D00031014FEA02701FBF12F07F4393F07F4F4C
:1004E00081F06051704732F07F4208BF704793F04F
:1004F0007F4F04BF41F40021704730B54FF4607462
:1005000001F0004521F000411CE700BF50EA010264
:1005100008BF704730B54FF000050AE050EA01020D
:1005200008BF704730B511F0004502D5404261EB7D
:1005300041014FF4806404F132045FEA915C3FF4BE
:10054000D8AE4FF003025FEADC0C18BF03325FEA5B
:10055000DC0C18BF033202EBDC02C2F1200300FA0C
:1005600003FC20FA02F001FA03FE40EA0E0021FA31
:1005700002F11444BDE600BF70B54FF0FF0C4CF41F
:10058000E06C1CEA11541DBF1CEA135594EA0C0FD1
:1005900095EA0C0F00F0DEF82C4481EA030621EA0C
:1005A0004C5123EA4C5350EA013518BF52EA033547
:1005B00041F4801143F4801338D0A0FB02CE4FF0F9
:1005C0000005E1FB02E506F00042E0FB03E54FF029
:1005D0000006E1FB03569CF0000F18BF4EF0010E21
:1005E000A4F1FF04B6F5007F64F5407404D25FEA1D
:1005F0004E0E6D4146EB060642EAC62141EA5551D0
:100600004FEAC52040EA5E504FEACE2EB4F1FD0C11
:1006100088BFBCF5E06F1ED8BEF1004F08BF5FEA8F
:10062000500E50F1000041EB045170BD06F0004641
:1006300046EA010140EA020081EA0301B4EB5C04EE
:10064000C2BFD4EB0C0541EA045170BD41F48011E6
:100650004FF0000E013C00F3AB8014F1360FDEBF0B
:10066000002001F0004170BDC4F10004203C35DAE7
:100670000C341BDC04F11404C4F1200500FA05F36A
:1006800020FA04F001FA05F240EA020001F000420B
:1006900021F0004110EBD37021FA04F642EB060181
:1006A0005EEA430E08BF20EAD37070BDC4F10C04AB
:1006B000C4F1200500FA04F320FA05F001FA04F26F
:1006C00040EA020001F0004110EBD37041F100015B
:1006D0005EEA430E08BF20EAD37070BDC4F1200566
:1006E00000FA05F24EEA020E20FA04F301FA05F2CE
:1006F00043EA020321FA04F001F0004121FA04F276
:1007000020EA020000EBD3705EEA430E08BF20EA45
:10071000D37070BD94F0000F0FD101F0004640007F
:1007200041EB010111F4801F08BF013CF7D041EA01
:10073000060195F0000F18BF704703F00046520005
:1007400043EB030313F4801F08BF013DF7D043EAD6
:100750000603704794EA0C0F0CEA135518BF95EA8C
:100760000C0F0CD050EA410618BF52EA4306D1D113
:1007700081EA030101F000414FF0000070BD50EA32
:10078000410606BF1046194652EA430619D094EABC
:100790000C0F02D150EA013613D195EA0C0F05D1A6
:1007A00052EA03361CBF104619460AD181EA0301FA
:1007B00001F0004141F0FE4141F470014FF00000B2
:1007C00070BD41F0FE4141F4780170BD70B54FF04D
:1007D000FF0C4CF4E06C1CEA11541DBF1CEA1355CD
:1007E00094EA0C0F95EA0C0F00F0A7F8A4EB0504AF
:1007F00081EA030E52EA03354FEA013100F08880A6
:100800004FEA03334FF0805545EA131343EA12636E
:100810004FEA022245EA111545EA10654FEA002623
:100820000EF000419D4208BF964244F1FD0404F5DC
:10083000407402D25B084FEA3202B61A65EB030538
:100840005B084FEA32024FF480104FF4002CB6EBF5
:10085000020E75EB030E22BFB61A754640EA0C0075
:100860005B084FEA3202B6EB020E75EB030E22BFB5
:10087000B61A754640EA5C005B084FEA3202B6EBF6
:10088000020E75EB030E22BFB61A754640EA9C00B5
:100890005B084FEA3202B6EB020E75EB030E22BF85
:1008A000B61A754640EADC0055EA060E18D04FEA43
:1008B000051545EA16754FEA06164FEAC30343EAE3
:1008C00052734FEAC2025FEA1C1CC0D111F4801FB0
:1008D0000BD141EA00014FF000004FF0004CB6E7A9
:1008E00011F4801F04BF01430020B4F1FD0C88BF48
:1008F000BCF5E06F3FF6AFAEB5EB030C04BFB6EB53
:10090000020C5FEA500C50F1000041EB045170BD45
:100910000EF0004E4EEA113114EB5C04C2BFD4EB72
:100920000C0541EA045170BD41F480114FF0000EF6
:10093000013C90E645EA060E8DE60CEA135594EA72
:100940000C0F08BF95EA0C0F3FF43BAF94EA0C0F75
:100950000AD150EA01347FF434AF95EA0C0F7FF4EA
:1009600025AF104619462CE795EA0C0F06D152EA3E
:1009700003353FF4FDAE1046194622E750EA410622
:1009800018BF52EA43067FF4C5AE50EA41047FF433
:100990000DAF52EA43057FF4EBAE12E74FF0FF3C98
:1009A00006E000BF4FF0010C02E000BF4FF0010C69
:1009B0004DF804CD4FEA410C7FEA6C5C4FEA430CE2
:1009C00018BF7FEA6C5C1BD001B050EA410C0CBF31
:1009D00052EA430C91EA030F02BF90EA020F002093
:1009E000704710F1000F91EA030F58BF994208BFFA
:1009F00090422CBFD8176FEAE37040F001007047B7
:100A00004FEA410C7FEA6C5C02D150EA013C07D10D
:100A10004FEA430C7FEA6C5CD6D152EA033CD3D058
:100A20005DF8040B704700BF8446104662468C4652
:100A30001946634600E000BF01B5FFF7B7FF002885
:100A400048BF10F1000F01BD4DF808EDFFF7F4FFAE
:100A50000CBF012000205DF808FB00BF4DF808ED39
:100A6000FFF7EAFF34BF012000205DF808FB00BF5C
:100A70004DF808EDFFF7E0FF94BF012000205DF87E
:100A800008FB00BF4DF808EDFFF7CEFF94BF012033
:100A900000205DF808FB00BF4DF808EDFFF7C4FF2C
:100AA00034BF012000205DF808FB00BF4FEA410C75
:100AB0007FEA6C5C02D150EA013C0AD14FEA430C58
:100AC0007FEA6C5C02D152EA033C02D14FF0000095
:100AD00070474FF0010070474FEA410212F50012D3
:100AE00015D211D56FF47873B3EB625212D94FEA75
:100AF000C12343F0004343EA505311F0004F23FA5F
:100B000002F018BF404270474FF00000704750EAB3
:100B1000013005D111F0004008BF6FF00040704770
:100B20004FF00000704700BF4A0011D212F50012CA
:100B300011D20DD56FF47873B3EB62520ED44FEA35
:100B4000C12343F0004343EA505323FA02F07047B5
:100B50004FF00000704750EA013002D14FF0FF30F3
:100B600070474FF0000070474FEA4102B2F1E04396
:100B700024BFB3F5001CDCF1FE5C0DD901F0004C84
:100B80004FEAC0024CEA5070B2F1004F40EB8300D4
:100B900008BF20F00100704711F0804F21D113F100
:100BA0003872BCBF01F00040704741F480114FEA39
:100BB0005252C2F11802C2F1200C10FA0CF320FAC2
:100BC00002F018BF40F001004FEAC1234FEAD323DF
:100BD00003FA0CFC40EA0C0023FA02F34FEA430349
:100BE000CCE77FEA625307D150EA01331EBF4FF0D2
:100BF000FE4040F44000704701F0004040F0FE40ED
:100C000040F40000704700BF80F0004002E000BFE9
:100C100081F0004142001FBF5FEA410392EA030FE7
:100C20007FEA226C7FEA236C6AD04FEA1262D2EB31
:100C30001363C1BFD218414048404140B8BF5B4236
:100C4000192B88BF704710F0004F40F4000020F0CF
:100C50007F4018BF404211F0004F41F4000121F0E5
:100C60007F4118BF494292EA030F3FD0A2F101022F
:100C700041FA03FC10EB0C00C3F1200301FA03F16D
:100C800000F0004302D5494260EB4000B0F5000F90
:100C900013D3B0F1807F06D340084FEA310102F14F
:100CA0000102FE2A51D2B1F1004F40EBC25008BF01
:100CB00020F0010040EA03007047490040EB0000CB
:100CC000013A28BFB0F5000FEDD2B0FA80FCACF1CC
:100CD000080CB2EB0C0200FA0CF0AABF00EBC250F9
:100CE00052421843BCBFD0401843704792F0000FE7
:100CF00081F4000106BF80F400000132013BB5E73A
:100D00004FEA41037FEA226C18BF7FEA236C21D0AF
:100D100092EA030F04D092F0000F08BF0846704714
:100D200090EA010F1CBF0020704712F07F4F04D1E2
:100D3000400028BF40F00040704712F100723CBFF5
:100D400000F50000704700F0004343F0FE4040F41F
:100D5000000070477FEA226216BF08467FEA2363DD
:100D60000146420206BF5FEA412390EA010F40F4C8
:100D7000800070474FF0000304E000BF10F0004314
:100D800048BF40425FEA000C08BF704743F09643FB
:100D900001464FF000001CE050EA010208BF704716
:100DA0004FF000030AE000BF50EA010208BF70479D
:100DB00011F0004302D5404261EB41015FEA010CB2
:100DC00002BF84460146002043F0B64308BFA3F1AA
:100DD0008053A3F50003BCFA8CF2083AA3EBC2538C
:100DE00010DB01FA02FC634400FA02FCC2F12002AB
:100DF000BCF1004F20FA02F243EB020008BF20F0E2
:100E00000100704702F1200201FA02FCC2F1200247
:100E100050EA4C0021FA02F243EB020008BF20EA3C
:100E2000DC7070474FF0FF0C1CEAD0521EBF1CEA6A
:100E3000D15392EA0C0F93EA0C0F6FD01A4480EA58
:100E4000010C400218BF5FEA41211ED04FF0006341
:100E500043EA501043EA5111A0FB01310CF000406D
:100E6000B1F5000F3EBF490041EAD3715B0040EA93
:100E7000010062F17F02FD2A1DD8B3F1004F40EB63
:100E8000C25008BF20F00100704790F0000F0CF036
:100E9000004C08BF49024CEA502040EA51207F3AFA
:100EA000C2BFD2F1FF0340EAC250704740F40000D5
:100EB0004FF00003013A5DDC12F1190FDCBF00F0C6
:100EC00000407047C2F10002410021FA02F1C2F174
:100ED000200200FA02FC5FEA310040F1000053EA10
:100EE0004C0308BF20EADC70704792F0000F00F05E
:100EF000004C02BF400010F4000F013AF9D040EA64
:100F00000C0093F0000F01F0004C02BF490011F4F7
:100F1000000F013BF9D041EA0C018FE70CEAD153F5
:100F200092EA0C0F18BF93EA0C0F0AD030F0004C75
:100F300018BF31F0004CD8D180EA010000F0004029
:100F4000704790F0000F17BF90F0004F084691F0E7
:100F5000000F91F0004F14D092EA0C0F01D1420221
:100F60000FD193EA0C0F03D14B0218BF084608D1EA
:100F700080EA010000F0004040F0FE4040F4000034
:100F8000704740F0FE4040F4400070474FF0FF0CC7
:100F90001CEAD0521EBF1CEAD15392EA0C0F93EA0E
:100FA0000C0F69D0A2EB030280EA010C49024FEA60
:100FB000402037D04FF0805343EA111143EA101319
:100FC0000CF000408B4238BF5B0042F17D024FF4D1
:100FD000000C8B4224BF5B1A40EA0C00B3EB510FAC
:100FE00024BFA3EB510340EA5C00B3EB910F24BF95
:100FF000A3EB910340EA9C00B3EBD10F24BFA3EB1A
:10100000D10340EADC001B0118BF5FEA1C1CE0D1E1
:10101000FD2A3FF650AF8B4240EBC25008BF20F094
:10102000010070470CF0004C4CEA50207F32C2BFE8
:10103000D2F1FF0340EAC250704740F400004FF085
:101040000003013A37E792F0000F00F0004C02BFB6
:10105000400010F4000F013AF9D040EA0C0093F080
:10106000000F01F0004C02BF490011F4000F013BDA
:10107000F9D041EA0C0195E70CEAD15392EA0C0F42
:1010800008D142027FF47DAF93EA0C0F7FF470AF7A
:10109000084676E793EA0C0F04D14B023FF44CAFBD
:1010A00008466EE730F0004C18BF31F0004CCAD152
:1010B00030F000427FF45CAF31F000437FF43CAF8E
:1010C0005FE700BF4FF0FF3C06E000BF4FF0010CB0
:1010D00002E000BF4FF0010C4DF804CD4FEA400292
:1010E0004FEA41037FEA226C18BF7FEA236C11D0DC
:1010F00001B052EA530C18BF90EA010F58BFB2EB8F
:10110000030088BFC81738BF6FEAE17018BF40F00E
:10111000010070477FEA226C02D15FEA402C05D1C2
:101120007FEA236CE4D15FEA412CE1D05DF8040B47
:10113000704700BF844608466146FFE70FB5FFF7DA
:10114000C9FF002848BF10F1000F0FBD4DF808ED92
:10115000FFF7F4FF0CBF012000205DF808FB00BF83
:101160004DF808EDFFF7EAFF34BF012000205DF8DD
:1011700008FB00BF4DF808EDFFF7E0FF94BF01202A
:1011800000205DF808FB00BF4DF808EDFFF7D2FF27
:1011900094BF012000205DF808FB00BF4DF808ED6A
:1011A000FFF7C8FF34BF012000205DF808FB00BF37
:1011B0004FEA4002B2F1FE4F0FD34FF09E03B3EB64
:1011C00012620DD94FEA002343F0004310F0004FA4
:1011D00023FA02F018BF404270474FF000007047FA
:1011E00012F1610F01D1420205D110F0004008BF99
:1011F0006FF0004070474FF0000070470348044B09
:10120000834202D0034B03B118477047E40100202A
:10121000E4010020000000000548064B1B1AD90F0E
:1012200001EBA301491002D0034B03B118477047EB
:10123000E4010020E40100200000000010B5064C8D
:10124000237843B9FFF7DAFF044B13B10448AFF337
:1012500000800123237010BDE40100200000000085
:1012600054AE000808B5054B1BB105490548AFF35E
:101270000080BDE80840FFF7CFBF00BF00000000BE
:10128000E801002054AE000808B50268034B9A42FA
:1012900000D008BD00F0C6F9FBE700BF0010004019
:1012A00072B6FEE710B596B00CAC2822002120469D
:1012B00006F0D9F900230793089309930A930B9337
:1012C00001930293039304930593069301220C92D6
:1012D0004FF480330D9310920222139214934FF423
:1012E000E0131593204600F0C5F9D0B90F230793FA
:1012F00002210891002309934FF480620A920B9314
:1013000007A800F0E9FB70B9122301934FF40043E2
:1013100003930023069301A800F0C8FC28B916B077
:1013200010BDFFF7BDFFFFF7BBFFFFF7B9FF08B523
:1013300000F066F9FFF7B6FF00F016F801F09EFC2A
:1013400001F082FB04F0E8F801F0B8F903F0C0FF07
:1013500004F080FD04F0A8FA03F02EFC01F056FF23
:1013600003F03CFCFEE700002DE9F04F89B004AC2F
:10137000002604960596069607965E4B9A6942F0FB
:1013800010029A619A6902F010020092009A9A691A
:1013900042F020029A619A6902F020020192019AB9
:1013A0009A6942F004029A619A6902F00402029278
:1013B000029A9A6942F008029A619B6903F0080355
:1013C0000393039BDFF83081012243F68C71404682
:1013D00000F017FE32464321404600F012FEDFF8CF
:1013E0001CB132464FF46041584600F00AFEDFF867
:1013F000109132464FF6E071484600F002FE01229D
:1014000040F20111584600F0FCFD012204213D4844
:1014100000F0F7FD01220821484600F0F2FD4FF4EC
:101420006E530493012505950695032707972146DA
:10143000404600F0C7FC4323049305954FF0020A91
:10144000CDF818A007972146404600F0BBFC0C23BE
:10145000049311230593069607972146404600F012
:10146000B1FC4EF2010304930595CDF818A007973F
:101470002146584600F0A6FC4FF6E073049305950C
:10148000CDF818A007972146484600F09BFC4FF482
:10149000807304930595069507972146584600F0FA
:1014A00091FC4FF48063049305950695CDF81CA03C
:1014B0002146404600F086FC0423049305950695DA
:1014C000079721460F4800F07DFC082304930595FB
:1014D000069507972146484600F074FC10230493B4
:1014E000059606962146484600F06CFC09B0BDE81A
:1014F000F08F00BF001002400010014000080140C2
:10150000000C014000140140FEE7FEE7FEE7FEE7A5
:10151000FEE7704708B5024800F036FE08BD00BF80
:101520006C0400207047000008B5024801F016FF67
:1015300008BD00BFE404002070B582B0184B1C68E1
:1015400014F0200F0AD05D68EDB2164B1B68FF2B1C
:1015500010D8591C134A1160134AD55414F0100FB7
:1015600006D00F4B5B680193019B0E4B1B6873B950
:1015700002B070BD01930C4E01A9304601F0BCF8D9
:10158000084B00221A6001221A603570E6E7054C0C
:101590002146054801F0B0F800232360E8E700BFCA
:1015A00000380140000300200002002000B583B095
:1015B000114B9A6942F001029A619A6902F00102A4
:1015C0000092009ADA6942F08052DA61DB6903F036
:1015D00080530193019B00220F216FF0010000F066
:1015E0008FFF064A536823F0E06343F08063536043
:1015F00003B05DF804FB00BF001002400000014092
:1016000008B5074A136843F010031360032000F085
:1016100065FF0F2001F00AFEFFF7C8FF002008BD9C
:1016200000200240034A1168034B1B780B441360EF
:10163000704700BF0403002000000020014B186821
:10164000704700BF0403002082B0084B1B68084AA3
:10165000A2FB03235B0A00FB03F3019300BF019B82
:101660005A1E0192002BF9D102B0704708000020E9
:10167000D34D6210002800F0F18170B582B00446AD
:10168000036813F0010F2CD0994B5B6803F00C0337
:10169000042B1DD0964B5B6803F00C03082B12D073
:1016A0006368B3F5803F41D0002B55D103F18043EF
:1016B00003F504331A6822F480321A601A6822F49F
:1016C00080221A6037E08A4B5B6813F4803FE7D0D2
:1016D000874B1B6813F4003F03D06368002B00F0B6
:1016E000BF81236813F0020F75D0814B5B6813F044
:1016F0000C0F5FD07E4B5B6803F00C03082B54D0BB
:101700002369002B00F08A807A4B01221A60FFF7D0
:1017100095FF0546764B1B6813F0020F75D1FFF756
:101720008DFF401B0228F5D903209EE1704A136803
:1017300043F480331360636843B3FFF77FFF0546CC
:101740006B4B1B6813F4003FCBD1FFF777FF401BB7
:101750006428F5D9032088E1B3F5A02F09D0644BA4
:101760001A6822F480321A601A6822F480221A6001
:10177000E1E703F18043A3F53C331A6842F4802289
:101780001A601A6842F480321A60D4E7FFF756FFF5
:101790000546574B1B6813F4003FA2D0FFF74EFFDE
:1017A000401B6428F5D903205FE1514B5B6813F4BB
:1017B000803FA5D14E4B1B6813F0020F03D0236965
:1017C000012B40F04F814A4A136823F0F803616906
:1017D00043EAC1031360236813F0080F33D0A369F1
:1017E000002B5CD0434B0122C3F88024FFF726FF77
:1017F00005463F4B5B6A13F0020F21D1FFF71EFF36
:10180000401B0228F5D903202FE1394A136823F041
:10181000F803616943EAC1031360DCE7354B00223A
:101820001A60FFF70BFF0546314B1B6813F0020FE0
:10183000D1D0FFF703FF401B0228F5D9032014E1A4
:101840000120FFF701FF236813F0040F00F09680DA
:10185000274BDB6913F0805F34D1254BDA6942F006
:101860008052DA61DB6903F080530193019B01250B
:10187000214B1B6813F4807F26D0E368012B3DD0F9
:10188000002B53D103F1804303F504331A6A22F08D
:1018900001021A621A6A22F004021A6233E0154B3E
:1018A0000022C3F88024FFF7C9FE0546104B5B6A8F
:1018B00013F0020FC7D0FFF7C1FE401B0228F5D975
:1018C0000320D2E00025D3E70B4A136843F480736A
:1018D0001360FFF7B3FE0646074B1B6813F4807FC7
:1018E000CBD1FFF7ABFE801B6428F5D90320BCE009
:1018F0000010024000004242007000405F4A136A3C
:1019000043F001031362E36833B3FFF797FE064623
:101910005A4B1B6A13F0020F2FD1FFF78FFE801B6B
:1019200041F288339842F3D903209EE0052B09D079
:10193000524B1A6A22F001021A621A6A22F0040259
:101940001A62E0E74D4B1A6A42F004021A621A6A00
:1019500042F001021A62D6E7FFF770FE0646474BD7
:101960001B6A13F0020F08D0FFF768FE801B41F2DC
:1019700088339842F3D9032077E0E5B9E369002B77
:1019800072D03E4A526802F00C02082A56D0022B4E
:1019900017D03B4B00221A66FFF750FE0446374B28
:1019A0001B6813F0007F47D0FFF748FE001B02289A
:1019B000F5D9032059E0314AD36923F08053D3612C
:1019C000DCE72F4B00221A66FFF738FE05462B4B4B
:1019D0001B6813F0007F06D0FFF730FE401B022883
:1019E000F5D9032041E0236AB3F5803F1AD023499B
:1019F0004B6823F47413226A606A024313434B60FA
:101A00001F4B01221A66FFF719FE04461B4B1B6889
:101A100013F0007F0ED1FFF711FE001B0228F5D94D
:101A2000032022E0154A536823F40033A1680B43D6
:101A30005360DCE7002018E0002016E0012B16D0F0
:101A40000E4B5B6803F48031226A914211D103F49A
:101A50007013626A93420ED1002006E001207047A5
:101A6000012002E0012000E0002002B070BD012052
:101A7000FBE70120F9E70120F7E700BF0010024073
:101A8000000042420F4B5B6803F00C02082A01D0B1
:101A90000D487047C3F383420C49885C13F4803FC0
:101AA0000BD0084B5B68C3F34043094AD35C064A3A
:101AB00002FB00F0B0FBF3F07047064B03FB00F0B5
:101AC000704700BF0010024000127A0074AE000898
:101AD00070AE000800093D00002800F0A08070B53D
:101AE0000D460446524B1B6803F007038B420BD292
:101AF0004F4A136823F007030B431360136803F086
:101B000007038B4240F08D80236813F0020F17D03B
:101B100013F0040F04D0474A536843F4E063536062
:101B2000236813F0080F04D0424A536843F460530B
:101B30005360404A536823F0F003A1680B4353609D
:101B4000236813F0010F31D06368012B20D0022BE2
:101B500025D0384A126812F0020F64D035494A681D
:101B600022F0030213434B60FFF768FD0646314B3A
:101B70005B6803F00C036268B3EB820F16D0FFF7CB
:101B80005DFD801B41F288339842F0D9032045E087
:101B9000284A126812F4003FE0D101203EE0254AB5
:101BA000126812F0007FD9D1012037E0204B1B686A
:101BB00003F00703AB420AD91D4A136823F0070359
:101BC0002B431360136803F00703AB422DD1236846
:101BD00013F0040F06D0174A536823F4E063E1685A
:101BE0000B435360236813F0080F07D0114A536862
:101BF00023F46053216943EAC1035360FFF742FFB6
:101C00000C4B5B68C3F303130B4AD35CD8400B4BFC
:101C100018600B4B186801F009FB002070BD012013
:101C200070470120FAE70120F8E70120F6E700BF3E
:101C300000200240001002408CAE00080800002086
:101C400004000020014B1868704700BF0800002006
:101C500008B5FFF7F7FF044B5B68C3F30223034AA1
:101C6000D35CD84008BD00BF0010024084AE00081D
:101C70000F2303600B4B5A6802F0030242605A685C
:101C800002F0F00282605A6802F4E062C2605B68AF
:101C9000DB0803F4E0630361034B1B6803F00703F5
:101CA0000B607047001002400020024070B582B007
:101CB0000446036813F0010F36D03F4BDB6913F085
:101CC000805F4AD13C4BDA6942F08052DA61DB69CD
:101CD00003F080530193019B0125384B1B6813F4DB
:101CE000807F3CD0344B1B6A13F4407313D062687E
:101CF00002F440729A420ED02F4A136A23F44070C5
:101D00002F490126C1F840640026C1F840641062E2
:101D100013F0010F37D1284A136A23F44073616826
:101D20000B431362002D3FD1236813F0020F06D03E
:101D3000214A536823F44043A1680B43536023684E
:101D400013F0100F35D01C4A536823F480036169E7
:101D50000B435360002002B070BD0025BDE7174A59
:101D6000136843F480731360FFF768FC0646134B57
:101D70001B6813F4807FB5D1FFF760FC801B6428DB
:101D8000F5D90320E7E7FFF759FC06460A4B1B6A23
:101D900013F0020FBFD1FFF751FC801B41F28833D3
:101DA0009842F3D90320D6E7D36923F08053D36157
:101DB000BAE70020CFE700BF0010024000700040EB
:101DC0000000424270B582B00024A446A8E0834DD2
:101DD000AB4214D00CD8A5F58015AB420FD005F559
:101DE0007025AB420BD0A5F58015AB421FD106E0A4
:101DF0007B4DAB4203D005F58035AB4217D18B68E4
:101E0000A3B1012B0DD04261082410E0CC680EE094
:101E1000CC6804340BE0CC68083408E0CC680C349F
:101E200005E00261082402E0002400E00424BEF181
:101E3000FF0F41D806464FEA8C0233680F259540C4
:101E400023EA050304FA02F2134333604B6813F0EC
:101E5000805F63D0634B9A6942F001029A619B698B
:101E600003F001030193019B4FEA9C02951C5E4B1A
:101E700053F825600CF00305AD000F23AB4026EAB4
:101E800003065A4B98421ED003F58063984200F037
:101E9000838003F58063984200F0808003F58063BF
:101EA00098427DD003F5806398427BD003F5806330
:101EB000984206D0062307E0061DACF10802920006
:101EC000BBE7052300E00023AB4033430232464D1D
:101ED00045F822304B6813F4801F65D0444A93685C
:101EE00043EA0E0393604B6813F4001F62D0404A2C
:101EF000D36843EA0E03D3604B6813F4003F5FD00E
:101F00003B4A536843EA0E0353604B6813F4803F27
:101F10005CD0374A136843EA0E0313600CF1010CDE
:101F20000B6833FA0CF257D0012202FA0CF203EAE2
:101F3000020E32EA0303F1D14B68122B3FF647AF92
:101F4000122B3FF674AF01A555F823F0FF1D0008D2
:101F50000D1E0008171E0008291E00082F1E00086D
:101F60002F1E00082F1E00082F1E00082F1E00081D
:101F70002F1E00082F1E00082F1E00082F1E00080D
:101F80002F1E00082F1E00082F1E00082F1E0008FD
:101F9000111E00081D1E0008012395E7022393E788
:101FA000032391E704238FE7114A936823EA0E0382
:101FB000936098E70E4AD36823EA0E03D3609BE749
:101FC0000B4A536823EA0E0353609EE7084A1368DE
:101FD00023EA0E031360A1E702B070BD00002210D7
:101FE00000003110001002400000014000080140D4
:101FF000000401408368194201D00120704700208D
:1020000070470AB10161704709040161704730B43B
:102010000124056CAC40C56B6C6004686360436868
:10202000102B05D0036899600368DA6030BC7047F4
:1020300003689A600368D960F8E70000002838D088
:1020400010B4024601681C4B994227D81B4B0B4425
:102050001B48A0FB03031B099B001364194BD363AC
:10206000022382F8213008686FF30D1053689468DA
:102070002343D46823431469234354692343946955
:102080002343D469234303430B600020906301235F
:1020900082F8213082F8200010BC70470A4B0B44B4
:1020A0000748A0FB03031B099B001364074BD36382
:1020B000D6E70120704700BF07040240F8FFFDBFCC
:1020C000CDCCCCCC00000240F8FBFDBF00040240A8
:1020D00038B5044690F82000012831D0012084F85A
:1020E000200094F82100012804D0002384F8203037
:1020F000022038BD022084F821000020A06325685A
:10210000286820F0010028602046FFF780FFE36A7E
:102110005BB12268136843F00E03136022681368F2
:1021200043F0010313600020E3E72268136823F003
:10213000040313602268136843F00A031360EDE799
:102140000220D6E7034690F82120022A06D0042276
:102150008263002280F820200120704701680A680D
:1021600022F00E020A6001680A6822F001020A6089
:10217000026CC06B012101FA02F2426083F8211067
:10218000002083F82000704738B5C36B1A680468D4
:102190002568016C04238B40134200F09B8015F0EE
:1021A000040F00F09780236813F0200F03D12368F9
:1021B00023F00403236003689A4A934246D9783A8D
:1021C000934224D01432934228D01432934227D021
:1021D0001432934227D01432934227D014329342C0
:1021E00027D01432934227D002F56272934226D050
:1021F0001432934225D01432934224D014329342A5
:1022000002D04FF4802203E04FF4804200E0042229
:10221000854B5A60C36A03B1984738BD4022F7E73F
:102220004FF48062F4E74FF48042F1E74FF48022EC
:10223000EEE74FF48002EBE74FF08062E8E704221C
:10224000E6E74022E4E74FF48062E1E7774A934211
:1022500024D01432934225D01432934224D0143225
:10226000934224D01432934224D01432934224D087
:102270001432934224D002F56272934223D0143276
:10228000934222D01432934221D01432934202D08E
:102290004FF4802203E04FF4804200E00422644BBC
:1022A0005A60B7E74022FAE74FF48062F7E74FF44D
:1022B0008042F4E74FF48022F1E74FF48002EEE72A
:1022C0004FF08062EBE70422E9E74022E7E74FF4B2
:1022D0008062E4E702238B40134200F0AB8015F0EC
:1022E000020F00F0A780236813F0200F06D12368A7
:1022F00023F00A032360012380F821300368494A50
:1023000093424BD9783A934224D0143293422DD041
:10231000143293422CD0143293422CD01432934274
:102320002CD0143293422CD0143293422CD002F58C
:10233000627293422BD0143293422AD014329342C9
:1023400029D01432934202D04FF4003203E04FF40C
:10235000005200E00222344B5A60002380F8203003
:10236000836A002B3FF459AF984756E72022F2E7E3
:102370004FF40072EFE74FF40052ECE74FF40032F5
:10238000E9E74FF40012E6E74FF00072E3E70222BC
:10239000E1E72022DFE74FF40072DCE7234A9342B3
:1023A00024D01432934225D01432934224D01432D4
:1023B000934224D01432934224D01432934224D036
:1023C0001432934224D002F56272934223D0143225
:1023D000934222D01432934221D01432934202D03D
:1023E0004FF4003203E04FF4005200E00222104BA1
:1023F0005A60B2E72022FAE74FF40072F7E74FF491
:102400000052F4E74FF40032F1E74FF40012EEE728
:102410004FF00072EBE70222E9E72022E7E74FF4F2
:102420000072E4E78000024000040240080002401D
:102430000000024008238B4013423FF4EEAE15F03B
:10244000080F3FF4EAAE236823F00E032360026C0A
:10245000C16B012303FA02F24A60836380F82130E2
:10246000002380F82030036B002B3FF4D6AE984752
:10247000D3E600BF002808DB0901C9B200F16040C3
:1024800000F5614080F80013704700F00F0009016B
:10249000C9B2014B1954704714ED00E000B500F0CB
:1024A0000700C0F1070CBCF1040F28BF4FF0040C6B
:1024B000031D062B0FD9C31E4FF0FF3E0EFA0CF082
:1024C00021EA000199400EFA03FE22EA0E0241EAD7
:1024D00002005DF804FB0023EEE70000074AD36822
:1024E00023F4E0631B041B0C000200F4E0600343D0
:1024F00043F0BF6343F40033D360704700ED00E066
:1025000010B50446054BD868C0F30220FFF7C6FF9C
:1025100001462046FFF7AEFF10BD00BF00ED00E012
:10252000002807DB00F01F02400901239340024A04
:1025300042F82030704700BF00E100E07047000023
:1025400010B503460C4A0D490D48006840B10C48CF
:1025500000680344521A934206D8094A136010BD1A
:102560000748084C0460F2E705F0D0F80C2303603C
:102570004FF0FF30F3E700BF0080012000100000A3
:1025800008030020583D00200120704708B505F0E1
:10259000BDF8162303604FF0FF3008BD08B54FF0BB
:1025A000FF31FFF7F3FFFEE770B50C461646002536
:1025B00006E0AFF30080214601F8010B01350C461F
:1025C000B542F6DB304670BD70B50C4616460025A8
:1025D00004E014F8010BAFF300800135B542F8DBDD
:1025E000304670BD4FF0FF3070474FF400534B60E2
:1025F0000020704701207047002070470238C0B2A9
:1026000001288CBF00200120704700B586464FF09E
:10261000000C604611E0520082F00702D0B2013394
:10262000DBB2072B05D842B2002AF4DB4000C0B26F
:10263000F5E70CF1010C1FFA8CFC8C4504D21EF856
:102640000C3058400023ECE75DF804FB70B5F8B19E
:102650000D46064604291DD90378AA2B1DD14078C2
:10266000FFF7CCFFD8B1402D28BF40250524AC4250
:102670000CD8611E89B23046FFF7C7FF331913F833
:10268000013C834207D00134A4B2F0E7002402E009
:10269000002400E00024204670BD0024FBE7002455
:1026A000F9E7000008B500224221192001F022F9C3
:1026B000014B186008BD00BF6004002000B583B066
:1026C0000020FFF7EFFF084B019300230093012345
:1026D0004FF480720549064801F009FD054B18606A
:1026E00003B05DF804FB00BF640400209CAE00084A
:1026F000AD29000868040020002849D02DE9F043E6
:1027000093B08146002945D0264B1B68002B43D04F
:102710000D68002D42D04FF0000803E001203EE09C
:10272000A0442D1B1DB32C46402D28BF402400275C
:10273000009701AE42223946304604F094FF22460B
:1027400009EB0801304605F01CF8ADF844403B4663
:102750006A4631461348006801F0B4F90028DDD01C
:10276000009B012BDCD1104B01221A60D8E70E4BE5
:102770001B684BB14FF0E0234FF08052C3F8042D9B
:10278000BFF34F8FBFF36F8F0020074B186006E039
:1027900000207047002002E0002000E0002013B07D
:1027A000BDE8F083600400205C040020F0B585B033
:1027B000B0F84050042D43D904460678AA2E47D1DC
:1027C0006F1EB9B2FFF721FFE75DB84248D1334B26
:1027D0001E7066785E70A178E27842EA01225A8023
:1027E000052D46D9EAB2053AD2B22C4B1A71002A0D
:1027F00041D12A4B83F84070012E1FD0284B186816
:10280000002844D000230A22244901F097F8012827
:1028100036D0244A0021244B186802F077FD1F4B64
:102820005A88197993F840000290019100925B78E0
:102830001E4A00211C48006802F068FD05B0F0BD8A
:102840002B461B4A00211848006802F05FFDF5E79F
:102850003346184A00211448006802F057FDEDE79E
:1028600000970346144A00210F48006802F04EFD0D
:10287000E4E70022B9E7211D581D04F082FFB8E704
:102880000E4A0021084B186802F040FDC7E70C4AC9
:102890000021054B186802F039FDC0E7180400203C
:1028A000F43B002044AF00087C3A0020E8AF000869
:1028B000B4AE0008DCAE000804AF00087CAF00082E
:1028C000B0AF000800286AD070B592B00146B0F8E9
:1028D0004040002C31D0324B1B882344B3F5807F1D
:1028E00007D92F4B00221A80B4F5807F01D94FF40D
:1028F00080742B4E358822462A48284404F041FF34
:1029000025443580264B1A88042A16D9002101E077
:10291000013189B28A4203D9224B5B5CAA2BF7D1E1
:1029200069B91F4B1C88042C07D921461D48FFF7A5
:102930008DFE0546A8B9402C0AD812B070BD1948C2
:10294000541A2246014404F075FE154B1C80E8E73A
:10295000013C15492246481E04F06CFE104B1C80B9
:10296000D0E701AC42220021204604F07CFEADF805
:1029700044502A460B49204604F003FF2046FFF747
:1029800015FF074B1C88AC4203D8641B044B1C800A
:10299000B8E70448621B411904F04CFEF5E77047A4
:1029A0000C0300201003002011030020012816D082
:1029B0004FF0500383F31188BFF36F8FBFF34F8F36
:1029C000FEE705F5A4736B4413F8442C184901A8DD
:1029D000204404F08DFD03340135ADB213E030B571
:1029E000D3B0144B18680028FBD0002241A901F095
:1029F000D0F80128F5D1BDF844210F4901A804F011
:102A000077FD04460025BDF84431AB42D9D801AB6F
:102A100019190A4A1088927818538A70084A0021B6
:102A20000848006802F072FC41A8FFF74BFFD8E7A6
:102A300050B000086004002034B0000858B000080E
:102A40005CB000087C3A002000B585B000230193FB
:102A5000029303934E484F4A02604FF480728260A3
:102A6000037303754FF46022C26143600B2303615B
:102A700000F004FB002867D1012301930293072390
:102A8000039301A9424800F051F900285FD10223C5
:102A90000193029301A93E4800F048F9002859D15A
:102AA00003230193029301A9394800F03FF900285C
:102AB00053D10423019302930DEB0301344800F03A
:102AC00035F900284CD105230193029301A9304820
:102AD00000F02CF9002846D106230193029301A9A6
:102AE0002B4800F023F9002840D1072301930293DB
:102AF00001A9274800F01AF900283AD108230193C8
:102B0000029301A9224800F011F9002834D10923C9
:102B10000193029301A91E4800F008F978BB0E2327
:102B200001930A23029301A9194800F0FFF848BB5A
:102B30000F2301930B23029301A9154800F0F6F827
:102B400018BB05B05DF804FBFEF7AAFB94E7FEF79F
:102B5000A7FB9CE7FEF7A4FBA2E7FEF7A1FBA8E713
:102B6000FEF79EFBAFE7FEF79BFBB5E7FEF798FB92
:102B7000BBE7FEF795FBC1E7FEF792FBC7E7FEF761
:102B80008FFBCCE7FEF78CFBD2E7FEF789FBD8E79B
:102B9000B00400200024014070B588B000230493E5
:102BA00005930693079302682E4B9A4201D008B012
:102BB00070BD044603F56C439A6942F400729A6151
:102BC0009A6902F400720092009A9A6942F0040233
:102BD0009A619A6902F004020192019A9A6942F09C
:102BE00010029A619A6902F010020292029A9A699E
:102BF00042F008029A619B6903F008030393039B68
:102C0000FE2304930325059504AE31461648FFF7CD
:102C1000D9F830230493059531461448FFF7D2F8CC
:102C20000495059531461248FFF7CCF81148124B30
:102C300003600023436083608022C2604FF400720F
:102C400002614FF40062426183614FF48053C361BB
:102C5000FFF7F4F918B9074B23625C62A7E7FEF7A8
:102C60001FFBF8E70024014000080140001001406C
:102C7000000C01406C0400200800024000B583B045
:102C80000A4B5A6942F001025A615B6903F0010381
:102C90000193019B002205210B20FFF731FC0B2043
:102CA000FFF73EFC03B05DF804FB00BF00100240DC
:102CB00008B5436A9A6A12F0500F1ED19A6A42F41C
:102CC00000729A621A68926802F46022B2F5602F6C
:102CD00003D0184602F0FEFD08BD1A7B002AF8D189
:102CE0009A6A22F480729A629A6A12F4805FF0D132
:102CF0009A6A42F001029A62EBE71B6A1B6B9847E3
:102D0000EAE7704708B5406AFFF7FBFF08BD704768
:102D100008B5406A836A43F040038362C36A43F0A4
:102D20000403C362FFF7F3FF08BD000030B482B0B4
:102D30000022019290F82420012A00F08F8003469F
:102D4000012280F824204A68062A2DD80468606B86
:102D500002EB8202053A4FF01F0C0CFA02FC20EA4B
:102D60000C000D6805FA02F2024362630A68092A40
:102D700038D91C68E06802EB42021E3A4FF0070C9B
:102D80000CFA02FC20EA0C008D6805FA02F20243FC
:102D9000E2600A68103A012A34D90020002283F840
:102DA000242002B030BC70470C2A0DD80568286B6F
:102DB00002EB8202233A1F24944020EA04000C68AC
:102DC000944020432863D1E70568E86A02EB820259
:102DD000413A1F24944020EA04000C6894402043A8
:102DE000E862C3E71C68206902EB42024FF0070C5F
:102DF0000CFA02FC20EA0C008D6805FA02F202438C
:102E00002261C6E71A681648824205D09A6A42F0E3
:102E100020029A620120C1E7906810F4000F1BD1D4
:102E2000906840F4000090600A68102A01D00020E9
:102E3000B4E70C4A12680C49A1FB0212920C02EB97
:102E400082025200019202E0019A013A0192019A33
:102E5000002AF9D10020A1E700209FE70220A0E787
:102E6000002401400800002083DE1B4330B583B0FE
:102E70000023019303689A6812F0010F33D10446CE
:102E80009A6842F001029A60184B1B68184AA2FB2C
:102E900003239B0C019302E0019B013B0193019BE7
:102EA000002BF9D1FEF7CAFB054623689B6813F097
:102EB000010F16D1FEF7C2FB431B022BF5D9236885
:102EC0009B6813F0010FF0D1A36A43F01003A362D3
:102ED000E36A43F00103E362002384F82430012015
:102EE00002E0002000E0002003B030BD0800002018
:102EF00083DE1B43F8B504460D4616460168444878
:102F0000814259D0434B994256D094F82430012B3A
:102F10007CD0012384F824302046FFF7A7FF074622
:102F200000286ED1A16A21F4706121F0010141F401
:102F30008071A1622268374B9A4244D0A36A23F47D
:102F40008013A362536813F4806F05D0A36A23F43F
:102F5000405343F48053A362A36A13F4805F48D0C4
:102F6000E36A23F00603E362002384F82430236A33
:102F7000294A9A62236A294ADA62236A284A1A632A
:102F800023686FF002021A602268936843F480732A
:102F90009360216833462A464C31206AFFF798F83F
:102FA00023689A6802F46022B2F5602F24D09A68F0
:102FB00042F480129A6027E0154B5B6813F4702F7F
:102FC000A3D0012720E0A3F580635B6813F4702F82
:102FD000B4D0A36A43F48013A3620D4B5B6813F46F
:102FE000806FB9D0A36A23F4405343F48053A362A3
:102FF000B2E70023E362B7E79A6842F4A0029A605E
:1030000002E0002384F824303846F8BD0227FBE7AD
:103010000024014000280140B12C0008052D0008C3
:10302000112D000838B503689A6812F0010F01D11C
:10303000002038BD04469A6822F001029A60FEF72B
:10304000FDFA054623689B6813F0010F13D0FEF7C5
:10305000F5FA431B022BF5D923689B6813F0010F87
:10306000F0D0A36A43F01003A362E36A43F00103C4
:10307000E3620120DDE70020DBE70000002800F02C
:10308000888070B50446836A002B52D02046FFF733
:10309000C9FFA36A13F0100375D1002873D1A26A87
:1030A00022F4885222F0020242F00202A262626816
:1030B000266839498E4242D0E1690A43217B42EABF
:1030C0004102A568B5F5807F02D0012D3ED01D4696
:1030D00094F814C0BCF1010F3BD0716821F4694130
:1030E000294371602568AE682C4931401143A960BD
:1030F000A168B1F5807F01D0012902D12369013B8C
:103100001B052568E96A21F470010B43EB62236813
:103110009968234B0B409A422CD0A36A23F01203E8
:1031200043F01003A362E36A43F00103E36201206A
:103130002EE0C36280F82430FFF72EFDA6E7E16998
:10314000B1F5402FB9D14FF40021B6E74FF48075A7
:10315000BEE731B9A169013945EA413141F4006561
:10316000BBE7A16A41F02001A162E16A41F00101DF
:10317000E162B2E70023E362A36A23F0030343F0B2
:103180000103A36204E0A36A43F01003A3620120D9
:1031900070BD0120704700BF003C0140FDF7E1FF1A
:1031A000FE0E1FFF90F82430012B27D010B50446E7
:1031B000012380F82430FFF735FF48B9226893686F
:1031C00023F480739360236A93F82120022A03D0AA
:1031D000002384F8243010BD1846FEF7B3FF40B931
:1031E000A36A23F4885323F0010343F00103A3628D
:1031F000EEE7A36A43F04003A362E9E702207047C9
:1032000008B5012001F060FDFBE7000008B5044AA5
:103210000021044801F0FEFC034B186008BD00BF0C
:1032200060B3000801320008E004002030B589B026
:103230000446214BDA6942F01002DA61DB6903F0DF
:1032400010030193019B02A903A8FEF711FD069B41
:10325000CBB9FEF7FDFC0346184AA2FB03239B0CE7
:10326000013B1748174A026040F2E732C2604360F0
:10327000002303618360836100F08CF9054630B15F
:10328000284609B030BDFEF7E3FC4300E4E70C48F4
:1032900000F01EF805460028F2D13620FFF740F96D
:1032A0000F2C01D90125EBE7002221463620FFF73C
:1032B00027F9054B1C60E3E70010024083DE1B4347
:1032C000E4040020001000400400002070470000CB
:1032D00090F83D30012B37D1022380F83D30026851
:1032E000D36843F00103D3600368194A934220D0A6
:1032F00002F5006293421CD0B3F1804F19D0A2F5C1
:103300009832934215D002F58062934211D002F5B3
:10331000806293420DD002F5A032934209D0A2F50B
:103320009A32934205D01A6842F001021A600020D6
:1033300070479A6802F00702062A07D01A6842F01E
:1033400001021A600020704701207047002070477A
:10335000002C0140704770477047704770B50446B5
:103360000368DE681D6915F0020F10D016F0020F19
:103370000DD06FF002021A610123037703689B6985
:1033800013F0030F5ED0FFF7E6FF0023237715F05D
:10339000040F12D016F0040F0FD023686FF0040250
:1033A0001A610223237723689B6913F4407F4FD06F
:1033B0002046FFF7D0FF0023237715F0080F12D027
:1033C00016F0080F0FD023686FF008021A6104236B
:1033D00023772368DB6913F0030F40D02046FFF703
:1033E000BAFF0023237715F0100F12D016F0100F3C
:1033F0000FD023686FF010021A6108232377236827
:10340000DB6913F4407F31D02046FFF7A4FF00238F
:10341000237715F0010F02D016F0010F2DD115F012
:10342000800F02D016F0800F2FD115F0400F02D080
:1034300016F0400F31D115F0200F02D016F0200FFA
:1034400033D170BDFFF786FF2046FFF785FF9CE76D
:103450002046FFF77FFF2046FFF77EFFABE72046C1
:10346000FFF778FF2046FFF777FFBAE72046FFF720
:1034700071FF2046FFF770FFC9E723686FF0010274
:103480001A612046FDF700FFC9E723686FF080024C
:103490001A61204600F0ABF8C7E723686FF04002DE
:1034A0001A612046FFF759FFC5E723686FF0200235
:1034B0001A61204600F09AF8C3E700000368344A16
:1034C000904212D002F5006290420ED0B0F1804FCF
:1034D0000BD0A2F59832904207D002F5806290425C
:1034E00003D002F58062904203D123F070034A6852
:1034F0001343274A90422AD002F50062904226D018
:10350000B0F1804F23D0A2F5983290421FD002F53F
:10351000806290421BD002F58062904217D002F583
:10352000A032904213D002F5806290420FD002F593
:10353000806290420BD0A2F59E32904207D002F5F5
:103540008062904203D002F58062904203D123F45E
:103550004073CA68134323F080034A69134303602E
:103560008B68C3620B688362094B984203D003F5F2
:103570000063984201D10B6903630123436103692E
:1035800013F0010F03D0036923F0010303617047B7
:10359000002C014040B310B5044690F83D30F3B123
:1035A000022384F83D30214651F8040BFFF786FFD3
:1035B000012384F8463084F83E3084F83F3084F8A4
:1035C000403084F8413084F8423084F8433084F845
:1035D000443084F8453084F83D30002010BD80F838
:1035E0003C30FFF773FEDBE7012070477047704700
:1035F00000F1080343604FF0FF328260C360036153
:1036000000230360704700230361704743684B60E9
:103610009A688A60516099600861036801330360A9
:10362000704730B40D68B5F1FF3F11D000F10803C9
:103630001C465B681A68AA42FAD963684B609960B5
:103640008C606160086103680133036030BC7047BF
:103650000469F2E70369416882688A6041685160E1
:103660005A68824206D0002202611A68013A1A6042
:103670001868704782685A60F5E710B5044601F093
:10368000C1FCA26BE36B9A4204D0002401F0DCFC85
:10369000204610BD0124F9E710B5044601F0B2FC44
:1036A000A36B23B9012401F0CFFC204610BD0024F8
:1036B000F9E770B504461546866B026C5AB9036883
:1036C0001BB100200136A66370BD806800F0F6FFD4
:1036D0000023A360F6E76DB9406804F052F8636810
:1036E000226C13446360A268934219D32368636019
:1036F0002846E7E7C06804F044F8E368226C5142CA
:103700009B1AE3602268934202D2A3680B44E360F1
:10371000022D01D00020D5E726B1013E0020D1E7DF
:103720002846CFE70020CDE708B50346026C62B11A
:103730000846D9681144D960D3F808C0614501D35F
:103740001968D960D96804F01CF808BD38B5054679
:1037500001F058FC95F8454064B201E0013C64B2C8
:10376000002C0ADD6B6A43B105F1240000F0FAFE7B
:103770000028F3D000F08CFFF0E7FF2385F84530F8
:1037800001F062FC01F03EFC95F8444064B201E0B7
:10379000013C64B2002C0ADD2B6943B105F1100035
:1037A00000F0E0FE0028F3D000F072FFF0E7FF2306
:1037B00085F8443001F048FC38BD38B5E0B10D461D
:1037C000044601F01FFC2368E26B216C01FB023010
:1037D000A0600020A0636360013A02FB0133E36054
:1037E000FF2384F8443084F84530FDB9236963B978
:1037F00001F02AFC012038BD4FF0500383F31188FB
:10380000BFF36F8FBFF34F8FFEE704F1100000F09E
:10381000A9FE0028ECD04FF0E0234FF08052C3F80F
:10382000042DBFF34F8FBFF36F8FE1E704F110005A
:10383000FFF7DEFE04F12400FFF7DAFED8E738B523
:103840001D46049C0B4649B92460E06323640121B2
:103850002046FFF7B2FF84F84C5038BD2260F4E7F1
:1038600040B94FF0500383F31188BFF36F8FBFF35C
:103870004F8FFEE710B584B01C46844653B192B119
:1038800089B94FF0500383F31188BFF36F8FBFF3F3
:103890004F8FFEE74FF0500383F31188BFF36F8F14
:1038A000BFF34F8FFEE76AB150230393039B502B66
:1038B00013D04FF0500383F31188BFF36F8FBFF322
:1038C0004F8FFEE70029EFD04FF0500383F31188AC
:1038D000BFF36F8FBFF34F8FFEE7039B012384F885
:1038E000463000949DF818306046FFF7A8FF204648
:1038F00004B010BD40B94FF0500383F31188BFF3FB
:103900006F8FBFF34F8FFEE7F0B583B00D461446BF
:10391000064601FB00F0503001F05EFA074650B158
:10392000002380F846300090234600F150022946DB
:103930003046FFF784FF384603B0F0BDF0B585B0E0
:10394000019288B10F461D460446B1B1022D20D127
:10395000E36B012B1DD04FF0500383F31188BFF3AD
:103960006F8FBFF34F8FFEE74FF0500383F3118843
:10397000BFF36F8FBFF34F8FFEE7036C002BE5D0D3
:103980004FF0500383F31188BFF36F8FBFF34F8F56
:10399000FEE700F083FE064658B9019B002B48D095
:1039A0004FF0500383F31188BFF36F8FBFF34F8F36
:1039B000FEE700263DE02A4639462046FFF779FE1D
:1039C000636A7BB948B14FF0E0234FF08052C3F8EF
:1039D000042DBFF34F8FBFF36F8F01F035FB012034
:1039E00005B0F0BD04F1240000F0BCFD0028F4D0C7
:1039F0004FF0E0234FF08052C3F8042DBFF34F8FF8
:103A0000BFF36F8FE9E701F01FFB0020E8E702A892
:103A100000F0EEFD012619E0002384F8443021E097
:103A2000002384F8453023E02046FFF78FFE00F0A6
:103A300077FC01F0E7FAA26BE36B9A42BBD3022D4D
:103A4000B9D0019B002BDED0002EE0D001F0FCFAB3
:103A500000F0CCFB01F0D6FA94F8442052B2B2F157
:103A6000FF3FD9D094F8452052B2B2F1FF3FD7D0F2
:103A700001F0EAFA01A902A800F0C6FDD8B9204673
:103A8000FFF7FBFD0028CFD0019904F1100000F0F2
:103A900035FD2046FFF75AFE00F042FC0028C8D151
:103AA0004FF0E0234FF08052C3F8042DBFF34F8F47
:103AB000BFF36F8FBDE72046FFF748FE00F030FCF4
:103AC00000208DE72DE9F84390B10F4616461C46BD
:103AD0000546B1B1022C20D1EB6B012B1DD04FF06C
:103AE000500383F31188BFF36F8FBFF34F8FFEE74F
:103AF0004FF0500383F31188BFF36F8FBFF34F8FE5
:103B0000FEE7036C002BE5D04FF0500383F31188E0
:103B1000BFF36F8FBFF34F8FFEE701F05DFBEFF355
:103B200011884FF0500383F31188BFF36F8FBFF3F9
:103B30004F8FAA6BEB6B9A4206D3022C04D0002065
:103B400088F31188BDE8F88395F845904FFA89F914
:103B5000AB6B224639462846FFF7ABFDB9F1FF3F74
:103B600006D009F101035BB285F845300120E7E793
:103B70006B6A0BB90120E3E705F1240000F0F2FCC9
:103B800018B126B101203060DAE70120D8E7012022
:103B9000D6E7F0B585B0019290B10F460446C1B1A9
:103BA00000F07CFD064600BB019B002B5ED04FF071
:103BB000500383F31188BFF36F8FBFF34F8FFEE77E
:103BC0004FF0500383F31188BFF36F8FBFF34F8F14
:103BD000FEE7036C002BE3D04FF0500383F3118812
:103BE000BFF36F8FBFF34F8FFEE700263EE03946ED
:103BF0002046FFF799FD013DA563236923B901F034
:103C000023FA012005B0F0BD04F1100000F0AAFC79
:103C10000028F4D04FF0E0234FF08052C3F8042D79
:103C2000BFF34F8FBFF36F8FE9E701F00DFA00206C
:103C3000E8E702A800F0DCFC012621E0002384F87C
:103C4000443029E0002384F845302BE02046FFF77C
:103C50007DFD00F065FB09E02046FFF777FD00F0F1
:103C60005FFB2046FFF718FD00283FD101F0CAF99D
:103C7000A56B002DBBD1019B002BD6D0002ED8D038
:103C800001F0E2F900F0B2FA01F0BCF994F8443026
:103C90005BB2B3F1FF3FD1D094F845305BB2B3F1E2
:103CA000FF3FCFD001F0D0F901A902A800F0ACFC91
:103CB0000028D1D12046FFF7EFFC0028C6D001999B
:103CC00004F1240000F01AFC2046FFF73FFD00F04D
:103CD00027FB0028CAD14FF0E0234FF08052C3F8F1
:103CE000042DBFF34F8FBFF36F8FBFE7002089E72D
:103CF0000023072B0CD8074A52F833200AB10133AE
:103D0000F7E7044A42F8331002EBC30250607047F1
:103D1000704700BF2C05002070B504460D461646BE
:103D200001F070F994F844305BB2B3F1FF3F0DD06D
:103D300094F845305BB2B3F1FF3F0BD001F084F94A
:103D4000A36B5BB12046FFF701FD70BD002384F833
:103D50004430EDE7002384F84530EFE7324629464A
:103D600004F1240000F0E2FBECE70000084B1B68C4
:103D70001B6823B9074B4FF0FF321A607047044BA2
:103D80001B68DB68DB685A68024B1A60704700BF2B
:103D9000DC050020740500202DE9F04780460D4623
:103DA00017469946089EDDF824A00A9C9200A5219A
:103DB000206B03F058FC236B07F18042013A03EBC0
:103DC000820727F00707A5B34FF0000CBCF10F0FD7
:103DD00009D815F80C3004EB0C0282F8343013B11A
:103DE0000CF1010CF2E7002384F84330372E00D9A0
:103DF0003726E662E66400252565201DFFF703FCF3
:103E000004F11800FFF7FFFB2461C6F13806A66134
:103E10006462656584F858504A464146384601F068
:103E2000CBF82060BAF1000F01D0CAF80040BDE81D
:103E3000F087002384F83430D8E7000038B5002438
:103E400007E004EB840293000E481844FFF7D0FB10
:103E50000134372CF5D90C4D2846FFF7C9FB0B4C24
:103E60002046FFF7C5FB0A48FFF7C2FB0948FFF7EA
:103E7000BFFB0948FFF7BCFB084B1D60084B1C60EB
:103E800038BD00BF08060020F4050020E005002032
:103E9000C4050020B005002098050020DC050020A6
:103EA000D805002010B5044601F0ACF8224A13688A
:103EB00001331360214B1B685BB1214B1B686BB94D
:103EC0001E4B1B68DA6AE36A9A4207D81B4B1C60D8
:103ED00004E01A4B1C601368012B29D0194A13689F
:103EE000013313606364E06A174B1B68984201D981
:103EF000154B186000EB8000211D144B03EB800074
:103F0000FFF784FB01F0A0F80D4B1B687BB10B4B56
:103F10001B68DA6AE36A9A4209D24FF0E0234FF055
:103F20008052C3F8042DBFF34F8FBFF36F8F10BDC6
:103F3000FFF784FFD2E700BF94050020680A002045
:103F400088050020780500208C0500200806002048
:103F500010B5044690F8593063B1012B11D0022BF3
:103F60000ED04FF0500383F31188BFF36F8FBFF370
:103F70004F8FFEE7006B00F0B1FF204600F0AEFF70
:103F800010BD00F0ABFFFBE70F4B1B68D3B110B5C2
:103F900001F038F80D4BDB68DC68201DFFF75AFB99
:103FA0000B4A1368013B1360074A1368013B136017
:103FB00001F04AF82046FFF7CBFF034B1B68002BAC
:103FC000E6D110BD704700BFAC050020B005002051
:103FD0009405002008B5FFF7D7FF074B1B68012B9E
:103FE000F9D94FF0E0234FF08052C3F8042DBFF30E
:103FF0004F8FBFF36F8FEEE70806002070B50446C1
:104000000D46174B1E68174B18680430FFF722FB4C
:10401000B4F1FF3F0DD03444124B1B685C60A642E4
:1040200010D9114B18680F4B19680431FFF7F9FAD2
:1040300070BD002DEFD00B4B196804310B48FFF712
:10404000E5FAF5E70A4B1868064B19680431FFF7E3
:10405000E8FA084B1B68A342EAD9064B1C60E7E765
:1040600090050020680A0020D8050020980500204F
:10407000DC0500207405002030B587B00B9C7CB1B6
:104080000C9DB5B15C250495049D5C2D1AD04FF0B4
:10409000500383F31188BFF36F8FBFF34F8FFEE799
:1040A0004FF0500383F31188BFF36F8FBFF34F8F2F
:1040B000FEE74FF0500383F31188BFF36F8FBFF318
:1040C0004F8FFEE7049D0C9D2C63022485F8594018
:1040D00000240394029505AC01940A9C0094FFF718
:1040E0005BFE0C98FFF7DEFE059807B030BD2DE9AA
:1040F000F04385B00746884614461E46900000F0FF
:104100006BFE08B381465C2000F066FE0546A8B150
:10411000C0F83090002380F85930039302900D9B33
:1041200001930C9B00933346224641463846FFF7E5
:1041300033FE2846FFF7B6FE012007E0484600F0B0
:10414000CDFE4FF0FF3001E04FF0FF3005B0BDE88D
:10415000F083000010B588B000240594069407AAE7
:1041600006A905A800F0BEFD059B0293069B0193DE
:1041700000942346079A17491748FFF77DFF174B0E
:104180001860C0B100F04EFB012815D14FF050036C
:1041900083F31188BFF36F8FBFF34F8F104B4FF036
:1041A000FF321A600F4B01221A600F4B00221A6077
:1041B00000F0B2FF03E00020B0F1FF3F01D008B0F3
:1041C00010BD4FF0500383F31188BFF36F8FBFF31F
:1041D0004F8FFEE76CB00008D53F00087005002047
:1041E000740500208805002090050020024A13680D
:1041F00001331360704700BF6C050020014B186845
:10420000704700BF90050020F8B53A4B1B68002BA3
:1042100069D1394B1D6801351D60C5B9374B1B6825
:104220001B6843B14FF0500383F31188BFF36F8FC6
:10423000BFF34F8FFEE7314A1168314B18681060A9
:104240001960304A136801331360FFF78FFD2E4B5E
:104250001B68AB423DD900272C4B1B68DB6A03EB84
:1042600083039A002A4B9B58012B00D90127294B25
:104270001B68002B3CD001273AE001271F4B1B682D
:104280001B6843B31D4B1B68DB68DC6863689D4299
:1042900026D3261D3046FFF7DDF9A36A1BB104F1D2
:1042A0001800FFF7D7F9E36A1B4A1268934201D955
:1042B000194A136003EB83039A00314614481044F3
:1042C000FFF7A4F9E26A114B1B68DB6A9A42D4D269
:1042D000D4E70027D2E70C4B4FF0FF321A60BBE760
:1042E000094A1360B8E70D4A1368013313600027C9
:1042F0003846F8BD6C05002090050020DC05002044
:10430000D80500207C05002074050020680A0020E4
:1043100008060020800500208C0500208405002070
:1043200038B5354B1B6843B94FF0500383F3118800
:10433000BFF36F8FBFF34F8FFEE700F063FE2E4B8E
:104340001A68013A1A601B68002B4FD12B4B1B686F
:104350000BB900244BE00024294B1B681BB3284BEE
:10436000DB68DC6804F11800FFF774F9251D2846A6
:10437000FFF770F9E06A234B1B68984201D9214B83
:10438000186000EB800029461F4B03EB8000FFF70D
:104390003DF9E26A1D4B1B68DB6A9A42DCD31C4B79
:1043A00001221A60D8E70CB1FFF7E0FC194B1C683A
:1043B00084B9174B1C68D4B14FF0E0234FF0805202
:1043C000C3F8042DBFF34F8FBFF36F8F01240EE0AE
:1043D000013C07D0FFF718FF0028F9D00C4B012251
:1043E0001A60F5E70B4B00221A60E2E7002400F0A8
:1043F0002BFE204638BD00BF6C0500209405002030
:10440000C40500208C05002008060020680A002052
:10441000800500208405002010B5A8B10446104B8B
:104420001B6843B14FF0500383F31188BFF36F8FC4
:10443000BFF34F8FFEE7FFF7D9FE00212046FFF7BD
:10444000DDFDFFF76DFF48B94FF0E0234FF08052DC
:10445000C3F8042DBFF34F8FBFF36F8F10BD00BFA4
:104460006C050020204B1B681BB1204B01221A60F9
:1044700070471E4B00221A601D4B1B6803EB830123
:104480008A001C498A585AB90BB1013BF6E74FF034
:10449000500383F31188BFF36F8FBFF34F8FFEE795
:1044A000084603EB83018A00024451684968516061
:1044B00003EB830C4FEA8C020832024491420BD08A
:1044C00003EB830291000B4A0A445268D1680A4AFE
:1044D0001160074A13607047486862469100054AB8
:1044E0000A445060ECE700BF6C0500208005002006
:1044F0008C05002008060020680A002058B110B57D
:104500000C46094A11681831FFF78BF80121204643
:10451000FFF774FD10BD4FF0500383F31188BFF314
:104520006F8FBFF34F8FFEE7680A002038B570B178
:104530000D4614460A4A11681831FFF767F80CB1A6
:104540004FF0FF3521462846FFF758FD38BD4FF0A4
:10455000500383F31188BFF36F8FBFF34F8FFEE7D4
:10456000680A002038B5C368DC6824B304F1180574
:104570002846FFF76FF8184B1B682BBB251D2846F4
:10458000FFF768F8E06A154B1B68984201D9134B96
:10459000186000EB80002946114B03EB8000FFF709
:1045A00035F8E26A0F4B1B68DB6A9A4211D9012089
:1045B0000D4B186038BD4FF0500383F31188BFF3E3
:1045C0006F8FBFF34F8FFEE729460848FFF71EF8AD
:1045D000E7E70020EEE700BF6C0500208C05002017
:1045E00008060020680A002080050020C40500207D
:1045F000034B1B680360034B1B684360704700BF9D
:104600007C0500209005002038B5E0B10C46054639
:1046100011B300F0F7FC1C4B19686B68C81A2268CC
:10462000B2F1FF3F29D0DFF864C0DCF800C0D5F854
:1046300000E0E64501D08B4224D9824215D8002300
:10464000236001241AE04FF0500383F31188BFF375
:104650006F8FBFF34F8FFEE74FF0500383F3118846
:10466000BFF36F8FBFF34F8FFEE75B1A13442360D6
:104670002846FFF7BDFF002400E0002400F0E4FC22
:10468000204638BD0124F9E7900500207C05002074
:10469000014B01221A60704780050020054B1B6802
:1046A00033B1054B1B680BB10020704702207047E7
:1046B00001207047880500206C05002000283BD0B1
:1046C00038B504461E4B1B68834208D04FF0500398
:1046D00083F31188BFF36F8FBFF34F8FFEE7036D36
:1046E00043B94FF0500383F31188BFF36F8FBFF3CB
:1046F0004F8FFEE7013B0365C16AC26C91421DD03A
:104700000BB1002038BD051D2846FEF7A3FFE06C65
:10471000E062C0F13803A3610A4B1B68984201D9DB
:10472000084B186000EB80002946074B03EB800024
:10473000FEF76CFF0120E5E7002070470020E1E76D
:10474000680A00208C05002008060020064B1A6825
:1047500013682BB90123036023B9D3681868704725
:104760000023F8E7002070476C0B002008B541607B
:10477000006191420CD8D21A83699A4201D3012078
:1047800008BD011D094B1868FEF74BFF0020F7E735
:104790009A4201D2994206D2011D054B1868FEF7D4
:1047A00040FF0020ECE70120EAE700BF680B002093
:1047B0006C0B002030B583B000F024FC114B1B685B
:1047C0001BB100F041FC03B030BD0F4D2846FEF791
:1047D0000FFF0E4C2046FEF70BFF0D4B1D600D4BDF
:1047E0001C60002300930C4B0C4A10210A20FFF799
:1047F00037F8044B18600028E3D00949FFF778FA2E
:10480000DFE700BF640B0020840B0020700B00204A
:104810006C0B0020680B00206C0A0020BC0A0020F2
:1048200074B0000810B588B0FFF7C4FF124B1B68C6
:10483000CBB100240594069407AA06A905A800F0A8
:104840005DFA059B0293069B019302230093234686
:10485000079A0A490A48FFF70FFC0A4B186010B183
:10486000012008B010BD4FF0500383F31188BFF34F
:104870006F8FBFF34F8FFEE7640B00207CB0000802
:10488000894B0008600B0020B8B19C4603461848CD
:10489000006858B300B585B00091019202930529D4
:1048A0001CDCFFF7FBFE022810D000231A466946E5
:1048B0000F480068FFF742F815E04FF0500383F30C
:1048C0001188BFF36F8FBFF34F8FFEE70023069A67
:1048D000694607480068FFF731F804E000236246A4
:1048E0006946FFF7EFF805B05DF804FB002070475C
:1048F000640B002070B582B01B4B1B681A6862B352
:10490000DB681E68DC68251D2846FEF7A3FE236AC7
:104910002046984794F8283013F0040FECD0A36990
:1049200033449E4207D26360246129460E4B1868C7
:10493000FEF777FEE0E7002100910B463246204665
:10494000FFF7A2FF0028D7D14FF0500383F311885F
:10495000BFF36F8FBFF34F8FFEE7044A1068024921
:104960000860136002B070BD6C0B0020680B002063
:1049700038B50546FFF742FC0446074B1B688342E7
:1049800005D800232B60044B1C60204638BDFFF780
:10499000B1FF01232B60F6E75C0B002070B582B0FD
:1049A00006460D4617490968C968CC68201DFEF700
:1049B00051FE94F828C01CF0040F08D12CF0010C13
:1049C00084F828C0236A2046984702B070BDA169C8
:1049D00033462A4631442046FFF7C8FE0028F1D06E
:1049E000002100910B4632462046FFF74DFF00287C
:1049F000E8D14FF0500383F31188BFF36F8FBFF3FB
:104A00004F8FFEE76C0B002070B582B006460C4657
:104A1000FFF7ECFB01A8FFF7ABFF019B33BB05469B
:104A2000E4B9B04213D22246711B124B1868FFF74B
:104A300073F9FFF775FCD8B94FF0E0234FF08052BF
:104A4000C3F8042DBFF34F8FBFF36F8F10E0FFF754
:104A500067FC29463046FFF7A1FF09E0064A1268C5
:104A600012680AB90124DEE71C46DCE7FFF758FCB0
:104A700002B070BD640B0020680B002010B588B038
:104A800002E0049B002B0FDA002204A93D4B1868BA
:104A9000FFF77FF8002872D0049B002BF1DA07990A
:104AA0000698059B9847ECE7069C636913B1201DA7
:104AB000FEF7D0FD03A8FFF75BFF0246049B092B1E
:104AC000E2D8DFE803F00505052F364E05052F3641
:104AD00094F8283043F0010384F82830059BA1693D
:104AE00019442046FFF742FE0028CDD0236A204615
:104AF000984794F8283013F0040FC5D0A26900211C
:104B000000910B46059802442046FFF7BDFE0028A1
:104B1000BAD14FF0500383F31188BFF36F8FBFF307
:104B20004F8FFEE794F8283023F0010384F82830F3
:104B3000AAE794F8283043F0010384F82830059957
:104B4000A16129B1034601442046FFF70FFE9BE710
:104B50004FF0500383F31188BFF36F8FBFF34F8F74
:104B6000FEE794F8283013F0020F04D023F001037D
:104B700084F8283088E7204600F0B0F984E708B0D0
:104B800010BD00BF640B002000B583B001A8FFF783
:104B9000DDFD0199FFF738FFFFF770FFF6E708B575
:104BA0004FF0E0231B69FFF779FD012800D108BD14
:104BB00000F088FAFBE70000EFF305832BB9064B02
:104BC000186828B901221A6070476FF00500704715
:104BD0004FF0FF30704700BF50120020EFF3058305
:104BE00073B90A4B1B68012B0DD110B50024084B7B
:104BF000DC77064B02221A60FFF7ACFA204610BDA4
:104C00006FF0050070474FF0FF30704750120020E2
:104C100000ED00E0F0B587B000240594EFF30584C3
:104C200004BBF8B1002A34D0156893692BB11E4635
:104C3000013B372B02D9002015E01826536813F0EA
:104C4000010F3FD1546984B14FEA940C93682BB1A2
:104C5000D7685B2F02D9176907B184B943B14FF008
:104C6000FF330BB3059807B0F0BD4FF0800CEDE7B4
:104C7000D368A3B91369ABB14FF0FF33F1E70293E7
:104C8000019700960B4662462946FFF7F5F9059015
:104C9000E8E71546002318264FF0800CE1E74FF0B7
:104CA000FF33DEE70023DCE705AB019300960B46FC
:104CB0001FFA8CF22946FFF71AFA0128D2D00023F6
:104CC0000593CFE70020CEE708B5EFF3058333B9AE
:104CD00008B9002008BDFFF79FFB0020FAE76FF03E
:104CE0000500F7E7034B0360034B0B608023136061
:104CF000704700BFF4110020F40F0020034B036045
:104D0000034B0B604FF4807313607047980F0020C3
:104D1000980B0020124A12F0070F1ED0D11D21F06F
:104D20000701C1F5205313440A460E4802600021D2
:104D300041601344083B23F007030B4803605960AC
:104D40001960991A51601360084B1960084B19607B
:104D5000084B4FF000421A6070474FF42053E4E7CD
:104D6000741200206C1200206812002060120020D3
:104D70006412002054120020154B1A461B6883420F
:104D8000FBD3516802EB010C844509D0416800EB6C
:104D9000010C634509D00360904218D01060704741
:104DA0004068014451601046F0E710B4094C246893
:104DB000A3420AD05B681944416013681B68036012
:104DC000904200D0106010BC70470460F8E7704754
:104DD0006C1200206812002038B50446FFF706FA6E
:104DE000384B1B68B3B1384B1B681C4250D1002CA8
:104DF00050D004F1080214F0070F02D022F007028D
:104E00000832002A55D0314B1B68934253D33049A6
:104E10000C6804E0FFF77EFFE5E721461C46636867
:104E2000934202D22368002BF7D1264B1B68A34282
:104E300043D00D68083523680B6063689B1A102BFC
:104E400010D9A01810F0070F08D04FF0500383F3CB
:104E50001188BFF36F8FBFF34F8FFEE7436062602F
:104E6000FFF78AFF626819490B689B1A0B601949A2
:104E700009688B4201D217490B60134B1B6813431F
:104E8000636000232360144A13680133136002E057
:104E9000002500E00025FFF743FA15F0070F0ED0BC
:104EA0004FF0500383F31188BFF36F8FBFF34F8F21
:104EB000FEE70025EFE70025EDE70025EBE72846B4
:104EC00038BD00BF68120020541200206412002078
:104ED0006C120020601200205C120020002834D0E8
:104EE00038B50446A0F1080550F8043C174A12688A
:104EF000134208D14FF0500383F31188BFF36F8F33
:104F0000BFF34F8FFEE750F8081C41B14FF050033C
:104F100083F31188BFF36F8FBFF34F8FFEE723EA50
:104F2000020340F8043CFFF761F954F8041C084AF6
:104F300013680B4413602846FFF71EFF054A1368E9
:104F400001331360FFF7ECF938BD704754120020AD
:104F5000641200205812002082B0002301930D4BF0
:104F60001B68B3F1FF3F08D04FF0500383F3118863
:104F7000BFF36F8FBFF34F8FFEE74FF0500383F304
:104F80001188BFF36F8FBFF34F8F019B002BFCD0B5
:104F900002B070470C00002006480068006880F3EB
:104FA000088862B661B6BFF34F8FBFF36F8F00DF23
:104FB00000BF000008ED00E04FF0807340F8043CB3
:104FC00021F0010140F8081C034B40F80C3C40F86C
:104FD000202C4038704700BF594F000800000000E7
:104FE000074B19680868B0E8F00F80F30988BFF331
:104FF0006F8F4FF0000080F311884EF00D0E704758
:10500000680A00204FF0500383F31188BFF36F8FBD
:10501000BFF34F8F0B4A136801331360012B00D08D
:1050200070474FF0E023D3F8043D13F0FF0FF7D0A3
:105030004FF0500383F31188BFF36F8FBFF34F8F8F
:10504000FEE700BF0C000020094B1B6843B94FF07E
:10505000500383F31188BFF36F8FBFF34F8FFEE7C9
:10506000013B034A13600BB983F31188704700BFFB
:105070000C00002000000000000000000000000004
:10508000EFF30980BFF36F8F0D4B1A6820E9F00F23
:10509000106008B54FF0500080F31188FFF7E2F977
:1050A0004FF0000080F31188BDE8084019680868D7
:1050B000B0E8F00F80F30988BFF36F8F704700BF2F
:1050C000680A002008B54FF0500383F31188BFF33E
:1050D0006F8FBFF34F8FFFF797F828B14FF0E023A2
:1050E0004FF08052C3F8042D002383F3118808BDCC
:1050F0004FF0E022002313619361054B1B680549C3
:10510000A1FB03135B0B013B536107231361704742
:10511000080000205917B7D110B582B02A4B1A7871
:10512000D2B20192FF221A701B78DBB28DF80330E5
:105130009DF8033003F05003244A1370244B0722D8
:105140001A6009E0224A1368013B13609DF803309E
:105150005B00DBB28DF803309DF8033013F0800F55
:10516000F0D11B4B1B68032B08D04FF0500383F387
:105170001188BFF36F8FBFF34F8FFEE71B02144AF6
:10518000136003F4E0631360019BDBB20E4A1370FB
:105190004FF0E023D3F8202D42F47002C3F8202D05
:1051A000D3F8202D42F07042C3F8202DFFF7A0FF66
:1051B0000024084B1C60FFF7EFFEFFF753F9FFF7E1
:1051C000CBFE204602B010BD00E400E0783A00209B
:1051D000743A00200C000020EFF305830F2B0ED94A
:1051E000114A9A5C114B1B789A4208D24FF0500337
:1051F00083F31188BFF36F8FBFF34F8FFEE74FF03C
:10520000E023D3F80C3D03F4E063094A12689342AB
:1052100008D94FF0500383F31188BFF36F8FBFF3AA
:105220004F8FFEE7704700BFF0E300E0783A0020C0
:10523000743A002000B586464FF0000C60460FE03F
:10524000520082F00702D0B20133DBB2072B05D83F
:1052500042B2002AF4DB4000C0B2F5E70CF1010CC9
:105260008C4504D21EF80C3058400023EEE75DF860
:1052700004FB0000012808D04FF0500383F311888D
:10528000BFF36F8FBFF34F8FFEE700B5A3B0094B9D
:1052900018680028FBD04FF0FF3201A9FEF779FC17
:1052A0000128F4D1BDF804100DF1060000F066F9F4
:1052B000EDE700BF7C3A002008B5002282211420CF
:1052C000FEF718FB014B186008BD00BF7C3A0020B8
:1052D00000B583B00020FFF7EFFF084B01930023D8
:1052E000009301234FF4807205490648FEF7FFFE44
:1052F000054B186003B05DF804FB00BF803A002046
:1053000084B0000875520008843A00200CB470B5CF
:10531000A2B0269D18B30C46064615B38222002182
:1053200001A802F0A0F927AB00932A4680210DF1D5
:10533000060002F071F9002815DD80280DDC80B22E
:10534000ADF804000023224601A93046FEF7F6FA24
:1053500022B0BDE8704002B070478020F0E7002026
:10536000F6E70020F4E70020F2E7000030B5A3B034
:105370000F4B1D68ADB11446A8B1B1B1802901D958
:10538000002013E0ADF804100A4601460DF10600B6
:1053900002F0F7F90023224601A92846FEF7CEFACB
:1053A00004E0002002E0002000E0002023B030BD37
:1053B0007C3A002030B5A3B00F4B1D68ADB1144648
:1053C000A8B1B1B1802901D9002013E0ADF80410D3
:1053D0000A4601460DF1060002F0D3F901232246E8
:1053E00001A92846FEF7AAFA04E0002002E0002006
:1053F00000E0002023B030BD7C3A0020F8B5069FC5
:10540000079D0FB316461C4605B33B2B20D81BB196
:1054100002B30533402B1FD8AA233B7078700B0AC8
:10542000BB70F9704CB9042421463846FFF702FFDF
:10543000631C38552B800020F8BD22463146381DAC
:1054400002F09FF90434EFE70120F5E70120F3E7CC
:105450000220F1E70320EFE70420EDE730B5B5B017
:105460000023ADF88E308DF88C100DF18E03019372
:1054700024AB0093012323AA01461846FFF7BEFF81
:1054800028B9214B1B6873B30024254617E0034657
:105490001D4A106880B31D4A0021FFF737FF2BE03B
:1054A00004F1D0036B4413F8403C194AC5F1800164
:1054B00003A8284401F0E6FF05440134A4B2BDF876
:1054C0008E30A34201D97B2DEADD05F1D0020DEB30
:1054D0000205002105F8C41C03AA00920D4A0A48DF
:1054E0000068FFF713FF4FF47A72BDF88E1024A8FE
:1054F000FFF760FF012801D135B030BDBDF88E1037
:1055000024A800F03BF8F7E77C3A00209CB00008A4
:1055100050B00008C4B00008154A936943F48043B2
:1055200043F005039361134B5A6822F0F0025A606E
:105530005A6842F0B0025A605A6822F470625A60A7
:105540005A6842F480625A6003F540530022DA60E0
:105550001A615A6140F271229A6042F23C02DA60AA
:10556000054B502283F8252320225A60704700BF44
:10557000001002400008014000E100E08446F0B164
:10558000E9B1002005E01CF800200D4B5A60013005
:1055900080B2884209D20B4B094A126812F0800F80
:1055A000F1D15A1E5BB11346F6E7064B044A126866
:1055B00012F0400F03D15A1E0BB11346F6E77047A5
:1055C0000038014040420F0010B50446012801D0C8
:1055D00034B110BD002201210448FCF712FDF7E7A9
:1055E000012211460148FCF70CFDF2E700080140DA
:1055F00038B5044610B1012C0CD038BD0B4D00223B
:1056000001212846FCF7FDFC012202212846FCF777
:10561000F8FCF0E7054C012211462046FCF7F1FCAE
:10562000002202212046FCF7ECFCE6E700100140D6
:1056300038B5044620B1012C10D0022C1CD038BD46
:10564000144D01224FF400712846FCF7DAFC0122C8
:105650004FF480712846FCF7D4FCECE70D4D012295
:105660004FF400712846FCF7CCFC00224FF4807107
:105670002846FCF7C6FCE0E7064C00224FF4007118
:105680002046FCF7BEFC01224FF480712046FCF757
:10569000B8FCD4E7000C014010B50446012801D045
:1056A00064B110BD002240210A48FCF7AAFC012287
:1056B0004FF400410848FCF7A4FCF1E70122402127
:1056C0000448FCF79EFC00224FF400410248FCF71E
:1056D00098FCE6E700100140000C014038B5044694
:1056E000012801D074B138BD0F4D00224FF40041A4
:1056F0002846FCF786FC01224FF480412846FCF73F
:1057000080FCEFE704F1804404F5843401224FF477
:1057100000412046FCF775FC00224FF480412046F2
:10572000FCF76FFCDFE700BF0008014038B5044616
:10573000012801D074B138BD0D4D00224FF48061B5
:105740002846FCF75EFC01224FF400612846FCF776
:1057500058FCEFE7064C01224FF480612046FCF72D
:1057600050FC00224FF400612046FCF74AFCE2E7BF
:10577000000C014038B50446012803D084B1022C46
:105780001CD038BD144D00224FF400512846FCF7C0
:1057900038FC01224FF480412846FCF732FCEDE74B
:1057A0000D4D01224FF400512846FCF72AFC00223F
:1057B0004FF480412846FCF724FCE0E7064C012228
:1057C0004FF400512046FCF71CFC01224FF48041AD
:1057D0002046FCF716FCD4E7000C014038B504461F
:1057E000012801D074B138BD0D4D00224FF4005195
:1057F0002846FCF706FC01224FF480412846FCF7BE
:1058000000FCEFE7064C01224FF400512046FCF764
:10581000F8FB00224FF480412046FCF7F2FBE2E760
:10582000000C014010B5044620B1012C0ED0022C12
:1058300019D010BDFFF77AFF0020FFF79BFF012072
:10584000FFF74CFF0120FFF7C9FFEEE70120FFF74C
:105850006DFF0220FFF78EFF0020FFF73FFF0020C3
:10586000FFF7BCFFE3E70120FFF760FF0020FFF731
:1058700081FF0120FFF732FF0020FFF7AFFFD8E7DD
:1058800010B50749FBF782FB0649FBF7CBFA044644
:105890000021FBF765FC08B9204610BD0024FBE79A
:1058A00000683F4800007A4400B583B0064B01937E
:1058B000002300934FF4807204490548FEF717FC5B
:1058C00003B05DF804FB00BF883A0020E8B0000890
:1058D000855C00080268044B9A4200D07047034B75
:1058E00001221A70FAE700BF00240140C43B0020E7
:1058F00038B5164B00221A700B2215491548FDF7D2
:10590000F9FA10B905460A240CE0134B186818B1CF
:10591000124A0021FFF7FAFC01250CE00A20FEF7ED
:105920007BFD013C094B1B780BB9002CF6D10948D3
:10593000FDF738FC0CB1284638BD074B186818B184
:10594000074A0021FFF7E2FC0225F4E7C43B0020F0
:10595000C83B0020B00400207C3A0020F8B00008CA
:1059600010B1000808B5FBF705FA0849FBF75AFA29
:105970000749FBF70BFB0146FBF74CF90349FBF723
:1059800047F90449FBF702FB08BD00BF333353401E
:1059900000F07F459EEF273EF8B501212648FCF731
:1059A00029FB18B9254B1B78012B00D0F8BD244BDF
:1059B0001E78002EFAD14FF4FA70FFF785F93346BE
:1059C0000A2B06D81F4A002142F823100133DBB20C
:1059D000F6E7374619E01C4B33F82400FFF7C2FF07
:1059E0001A4B53F82410FBF713F9FFF749FF014650
:1059F000144D55F82400FBF70DF945F82400013447
:105A0000E4B20A2CE7D90137FFB2092F01D8344696
:105A1000F7E70A2E0BD80E490A4B53F82600FBF77E
:105A2000B5FA0C4B43F826000136F6B2F1E7044B09
:105A300001221A70BAE700BF000801408C3A00202A
:105A40008D3A0020903A0020C83B0020143B0020F3
:105A500000002041BC3A002030B59FB0FFF79CFF0A
:105A6000002404E02B4B43F824000134E4B20A2C58
:105A700014D8294B53F82400FFF702FF274B43F8B3
:105A80002400274B1B78002BECD0264B53F8241016
:105A9000FBF7BEF81F4B43F82400E6E713AC1D4D9F
:105AA0000FCD0FC40FCD0FC495E8070084E80700A1
:105AB0000023ADF80A300DF10A03019303AB009304
:105AC0002C2313AA08210220FFF798FC034640B1BB
:105AD000154A106818B1154A0021FFF717FC1FB0CE
