:020000040800F2
:1000000000800120DD900008091500080B1500088C
:100010000D1500080F15000811150008000000005C
:10002000000000000000000000000000217E000829
:100030001315000800000000C17E0008DF790008E9
:1000400025910008259100082591000825910008B8
:1000500025910008259100082591000825910008A8
:100060002591000825910008259100081515000824
:100070002591000825910008259100082591000888
:100080002591000825910008259100082591000878
:1000900025150008259100082591000825910008E4
:1000A0002591000825910008259100082591000858
:1000B0002591000825910008259100082591000848
:1000C0002591000825910008259100082591000838
:1000D0002591000825910008259100082591000828
:1000E0002591000825910008259100082591000818
:1000F0002591000825910008259100082591000808
:1001000025910008259100082591000825910008F7
:100110002591000825910008351500082591000853
:1001200025910008259100082591000825910008D7
:1001300000000000000000000000000000000000BF
:1001400000000000000000000000000000000000AF
:10015000000000000000000000000000000000009F
:10016000000000000000000000000000000000008F
:10017000000000000000000000000000000000007F
:10018000000000000000000000000000000000006F
:10019000000000000000000000000000000000005F
:1001A000000000000000000000000000000000004F
:1001B000000000000000000000000000000000003F
:1001C000000000000000000000000000000000002F
:1001D000000000000000000000000000000000001F
:0401E0005FF8E0F1F3
:1001F000034613F8012B002AFBD1181A0138704767
:1002000081F0004102E000BF83F0004330B54FEAC7
:1002100041044FEA430594EA050F08BF90EA020F34
:100220001FBF54EA000C55EA020C7FEA645C7FEAC7
:10023000655C00F0E2804FEA5454D4EB5555B8BFEA
:100240006D420CDD2C4480EA020281EA030382EA5B
:10025000000083EA010180EA020281EA0303362DED
:1002600088BF30BD11F0004F4FEA01314FF4801CC0
:100270004CEA113102D0404261EB410113F0004FD2
:100280004FEA03334CEA133302D0524263EB430389
:1002900094EA050F00F0A780A4F10104D5F1200E27
:1002A0000DDB02FA0EFC22FA05F2801841F1000182
:1002B00003FA0EF2801843FA05F359410EE0A5F156
:1002C00020050EF1200E012A03FA0EFC28BF4CF087
:1002D000020C43FA05F3C01851EBE37101F000453D
:1002E00007D54FF0000EDCF1000C7EEB00006EEB4A
:1002F0000101B1F5801F1BD3B1F5001F0CD34908D4
:100300005FEA30004FEA3C0C04F101044FEA44522A
:1003100012F5800F80F09A80BCF1004F08BF5FEAB1
:10032000500C50F1000041EB045141EA050130BD91
:100330005FEA4C0C404141EB0101013C28BFB1F5A3
:10034000801FE9D291F0000F04BF01460020B1FAEE
:1003500081F308BF2033A3F10B03B3F120020CDAC1
:100360000C3208DD02F1140CC2F10C0201FA0CF09F
:1003700021FA02F10CE002F11402D8BFC2F1200C04
:1003800001FA02F120FA0CFCDCBF41EA0C019040BA
:10039000E41AA2BF01EB0451294330BD6FEA040403
:1003A0001F3C1CDA0C340EDC04F11404C4F12002EE
:1003B00020FA04F001FA02F340EA030021FA04F300
:1003C00045EA030130BDC4F10C04C4F1200220FA57
:1003D00002F001FA04F340EA0300294630BD21FA95
:1003E00004F0294630BD94F0000F83F4801306BF5B
:1003F00081F480110134013D4EE77FEA645C18BF4F
:100400007FEA655C29D094EA050F08BF90EA020FE5
:1004100005D054EA000C04BF1946104630BD91EADD
:10042000030F1EBF0021002030BD5FEA545C05D1E0
:100430004000494128BF41F0004130BD14F580041F
:100440003CBF01F5801130BD01F0004545F0FE4193
:1004500041F470014FF0000030BD7FEA645C1ABFC8
:10046000194610467FEA655C1CBF0B46024650EAFF
:10047000013406BF52EA033591EA030F41F400212B
:1004800030BD00BF90F0000F04BF0021704730B5B1
:100490004FF4806404F132044FF000054FF0000186
:1004A00050E700BF90F0000F04BF0021704730B547
:1004B0004FF4806404F1320410F0004548BF40421C
:1004C0004FF000013EE700BF42004FEAE2014FEA71
:1004D00031014FEA02701FBF12F07F4393F07F4F4C
:1004E00081F06051704732F07F4208BF704793F04F
:1004F0007F4F04BF41F40021704730B54FF4607462
:1005000001F0004521F000411CE700BF50EA010264
:1005100008BF704730B54FF000050AE050EA01020D
:1005200008BF704730B511F0004502D5404261EB7D
:1005300041014FF4806404F132045FEA915C3FF4BE
:10054000D8AE4FF003025FEADC0C18BF03325FEA5B
:10055000DC0C18BF033202EBDC02C2F1200300FA0C
:1005600003FC20FA02F001FA03FE40EA0E0021FA31
:1005700002F11444BDE600BF70B54FF0FF0C4CF41F
:10058000E06C1CEA11541DBF1CEA135594EA0C0FD1
:1005900095EA0C0F00F0DEF82C4481EA030621EA0C
:1005A0004C5123EA4C5350EA013518BF52EA033547
:1005B00041F4801143F4801338D0A0FB02CE4FF0F9
:1005C0000005E1FB02E506F00042E0FB03E54FF029
:1005D0000006E1FB03569CF0000F18BF4EF0010E21
:1005E000A4F1FF04B6F5007F64F5407404D25FEA1D
:1005F0004E0E6D4146EB060642EAC62141EA5551D0
:100600004FEAC52040EA5E504FEACE2EB4F1FD0C11
:1006100088BFBCF5E06F1ED8BEF1004F08BF5FEA8F
:10062000500E50F1000041EB045170BD06F0004641
:1006300046EA010140EA020081EA0301B4EB5C04EE
:10064000C2BFD4EB0C0541EA045170BD41F48011E6
:100650004FF0000E013C00F3AB8014F1360FDEBF0B
:10066000002001F0004170BDC4F10004203C35DAE7
:100670000C341BDC04F11404C4F1200500FA05F36A
:1006800020FA04F001FA05F240EA020001F000420B
:1006900021F0004110EBD37021FA04F642EB060181
:1006A0005EEA430E08BF20EAD37070BDC4F10C04AB
:1006B000C4F1200500FA04F320FA05F001FA04F26F
:1006C00040EA020001F0004110EBD37041F100015B
:1006D0005EEA430E08BF20EAD37070BDC4F1200566
:1006E00000FA05F24EEA020E20FA04F301FA05F2CE
:1006F00043EA020321FA04F001F0004121FA04F276
:1007000020EA020000EBD3705EEA430E08BF20EA45
:10071000D37070BD94F0000F0FD101F0004640007F
:1007200041EB010111F4801F08BF013CF7D041EA01
:10073000060195F0000F18BF704703F00046520005
:1007400043EB030313F4801F08BF013DF7D043EAD6
:100750000603704794EA0C0F0CEA135518BF95EA8C
:100760000C0F0CD050EA410618BF52EA4306D1D113
:1007700081EA030101F000414FF0000070BD50EA32
:10078000410606BF1046194652EA430619D094EABC
:100790000C0F02D150EA013613D195EA0C0F05D1A6
:1007A00052EA03361CBF104619460AD181EA0301FA
:1007B00001F0004141F0FE4141F470014FF00000B2
:1007C00070BD41F0FE4141F4780170BD70B54FF04D
:1007D000FF0C4CF4E06C1CEA11541DBF1CEA1355CD
:1007E00094EA0C0F95EA0C0F00F0A7F8A4EB0504AF
:1007F00081EA030E52EA03354FEA013100F08880A6
:100800004FEA03334FF0805545EA131343EA12636E
:100810004FEA022245EA111545EA10654FEA002623
:100820000EF000419D4208BF964244F1FD0404F5DC
:10083000407402D25B084FEA3202B61A65EB030538
:100840005B084FEA32024FF480104FF4002CB6EBF5
:10085000020E75EB030E22BFB61A754640EA0C0075
:100860005B084FEA3202B6EB020E75EB030E22BFB5
:10087000B61A754640EA5C005B084FEA3202B6EBF6
:10088000020E75EB030E22BFB61A754640EA9C00B5
:100890005B084FEA3202B6EB020E75EB030E22BF85
:1008A000B61A754640EADC0055EA060E18D04FEA43
:1008B000051545EA16754FEA06164FEAC30343EAE3
:1008C00052734FEAC2025FEA1C1CC0D111F4801FB0
:1008D0000BD141EA00014FF000004FF0004CB6E7A9
:1008E00011F4801F04BF01430020B4F1FD0C88BF48
:1008F000BCF5E06F3FF6AFAEB5EB030C04BFB6EB53
:10090000020C5FEA500C50F1000041EB045170BD45
:100910000EF0004E4EEA113114EB5C04C2BFD4EB72
:100920000C0541EA045170BD41F480114FF0000EF6
:10093000013C90E645EA060E8DE60CEA135594EA72
:100940000C0F08BF95EA0C0F3FF43BAF94EA0C0F75
:100950000AD150EA01347FF434AF95EA0C0F7FF4EA
:1009600025AF104619462CE795EA0C0F06D152EA3E
:1009700003353FF4FDAE1046194622E750EA410622
:1009800018BF52EA43067FF4C5AE50EA41047FF433
:100990000DAF52EA43057FF4EBAE12E74FF0FF3C98
:1009A00006E000BF4FF0010C02E000BF4FF0010C69
:1009B0004DF804CD4FEA410C7FEA6C5C4FEA430CE2
:1009C00018BF7FEA6C5C1BD001B050EA410C0CBF31
:1009D00052EA430C91EA030F02BF90EA020F002093
:1009E000704710F1000F91EA030F58BF994208BFFA
:1009F00090422CBFD8176FEAE37040F001007047B7
:100A00004FEA410C7FEA6C5C02D150EA013C07D10D
:100A10004FEA430C7FEA6C5CD6D152EA033CD3D058
:100A20005DF8040B704700BF8446104662468C4652
:100A30001946634600E000BF01B5FFF7B7FF002885
:100A400048BF10F1000F01BD4DF808EDFFF7F4FFAE
:100A50000CBF012000205DF808FB00BF4DF808ED39
:100A6000FFF7EAFF34BF012000205DF808FB00BF5C
:100A70004DF808EDFFF7E0FF94BF012000205DF87E
:100A800008FB00BF4DF808EDFFF7CEFF94BF012033
:100A900000205DF808FB00BF4DF808EDFFF7C4FF2C
:100AA00034BF012000205DF808FB00BF4FEA410C75
:100AB0007FEA6C5C02D150EA013C0AD14FEA430C58
:100AC0007FEA6C5C02D152EA033C02D14FF0000095
:100AD00070474FF0010070474FEA410212F50012D3
:100AE00015D211D56FF47873B3EB625212D94FEA75
:100AF000C12343F0004343EA505311F0004F23FA5F
:100B000002F018BF404270474FF00000704750EAB3
:100B1000013005D111F0004008BF6FF00040704770
:100B20004FF00000704700BF4A0011D212F50012CA
:100B300011D20DD56FF47873B3EB62520ED44FEA35
:100B4000C12343F0004343EA505323FA02F07047B5
:100B50004FF00000704750EA013002D14FF0FF30F3
:100B600070474FF0000070474FEA4102B2F1E04396
:100B700024BFB3F5001CDCF1FE5C0DD901F0004C84
:100B80004FEAC0024CEA5070B2F1004F40EB8300D4
:100B900008BF20F00100704711F0804F21D113F100
:100BA0003872BCBF01F00040704741F480114FEA39
:100BB0005252C2F11802C2F1200C10FA0CF320FAC2
:100BC00002F018BF40F001004FEAC1234FEAD323DF
:100BD00003FA0CFC40EA0C0023FA02F34FEA430349
:100BE000CCE77FEA625307D150EA01331EBF4FF0D2
:100BF000FE4040F44000704701F0004040F0FE40ED
:100C000040F40000704700BF80F0004002E000BFE9
:100C100081F0004142001FBF5FEA410392EA030FE7
:100C20007FEA226C7FEA236C6AD04FEA1262D2EB31
:100C30001363C1BFD218414048404140B8BF5B4236
:100C4000192B88BF704710F0004F40F4000020F0CF
:100C50007F4018BF404211F0004F41F4000121F0E5
:100C60007F4118BF494292EA030F3FD0A2F101022F
:100C700041FA03FC10EB0C00C3F1200301FA03F16D
:100C800000F0004302D5494260EB4000B0F5000F90
:100C900013D3B0F1807F06D340084FEA310102F14F
:100CA0000102FE2A51D2B1F1004F40EBC25008BF01
:100CB00020F0010040EA03007047490040EB0000CB
:100CC000013A28BFB0F5000FEDD2B0FA80FCACF1CC
:100CD000080CB2EB0C0200FA0CF0AABF00EBC250F9
:100CE00052421843BCBFD0401843704792F0000FE7
:100CF00081F4000106BF80F400000132013BB5E73A
:100D00004FEA41037FEA226C18BF7FEA236C21D0AF
:100D100092EA030F04D092F0000F08BF0846704714
:100D200090EA010F1CBF0020704712F07F4F04D1E2
:100D3000400028BF40F00040704712F100723CBFF5
:100D400000F50000704700F0004343F0FE4040F41F
:100D5000000070477FEA226216BF08467FEA2363DD
:100D60000146420206BF5FEA412390EA010F40F4C8
:100D7000800070474FF0000304E000BF10F0004314
:100D800048BF40425FEA000C08BF704743F09643FB
:100D900001464FF000001CE050EA010208BF704716
:100DA0004FF000030AE000BF50EA010208BF70479D
:100DB00011F0004302D5404261EB41015FEA010CB2
:100DC00002BF84460146002043F0B64308BFA3F1AA
:100DD0008053A3F50003BCFA8CF2083AA3EBC2538C
:100DE00010DB01FA02FC634400FA02FCC2F12002AB
:100DF000BCF1004F20FA02F243EB020008BF20F0E2
:100E00000100704702F1200201FA02FCC2F1200247
:100E100050EA4C0021FA02F243EB020008BF20EA3C
:100E2000DC7070474FF0FF0C1CEAD0521EBF1CEA6A
:100E3000D15392EA0C0F93EA0C0F6FD01A4480EA58
:100E4000010C400218BF5FEA41211ED04FF0006341
:100E500043EA501043EA5111A0FB01310CF000406D
:100E6000B1F5000F3EBF490041EAD3715B0040EA93
:100E7000010062F17F02FD2A1DD8B3F1004F40EB63
:100E8000C25008BF20F00100704790F0000F0CF036
:100E9000004C08BF49024CEA502040EA51207F3AFA
:100EA000C2BFD2F1FF0340EAC250704740F40000D5
:100EB0004FF00003013A5DDC12F1190FDCBF00F0C6
:100EC00000407047C2F10002410021FA02F1C2F174
:100ED000200200FA02FC5FEA310040F1000053EA10
:100EE0004C0308BF20EADC70704792F0000F00F05E
:100EF000004C02BF400010F4000F013AF9D040EA64
:100F00000C0093F0000F01F0004C02BF490011F4F7
:100F1000000F013BF9D041EA0C018FE70CEAD153F5
:100F200092EA0C0F18BF93EA0C0F0AD030F0004C75
:100F300018BF31F0004CD8D180EA010000F0004029
:100F4000704790F0000F17BF90F0004F084691F0E7
:100F5000000F91F0004F14D092EA0C0F01D1420221
:100F60000FD193EA0C0F03D14B0218BF084608D1EA
:100F700080EA010000F0004040F0FE4040F4000034
:100F8000704740F0FE4040F4400070474FF0FF0CC7
:100F90001CEAD0521EBF1CEAD15392EA0C0F93EA0E
:100FA0000C0F69D0A2EB030280EA010C49024FEA60
:100FB000402037D04FF0805343EA111143EA101319
:100FC0000CF000408B4238BF5B0042F17D024FF4D1
:100FD000000C8B4224BF5B1A40EA0C00B3EB510FAC
:100FE00024BFA3EB510340EA5C00B3EB910F24BF95
:100FF000A3EB910340EA9C00B3EBD10F24BFA3EB1A
:10100000D10340EADC001B0118BF5FEA1C1CE0D1E1
:10101000FD2A3FF650AF8B4240EBC25008BF20F094
:10102000010070470CF0004C4CEA50207F32C2BFE8
:10103000D2F1FF0340EAC250704740F400004FF085
:101040000003013A37E792F0000F00F0004C02BFB6
:10105000400010F4000F013AF9D040EA0C0093F080
:10106000000F01F0004C02BF490011F4000F013BDA
:10107000F9D041EA0C0195E70CEAD15392EA0C0F42
:1010800008D142027FF47DAF93EA0C0F7FF470AF7A
:10109000084676E793EA0C0F04D14B023FF44CAFBD
:1010A00008466EE730F0004C18BF31F0004CCAD152
:1010B00030F000427FF45CAF31F000437FF43CAF8E
:1010C0005FE700BF4FF0FF3C06E000BF4FF0010CB0
:1010D00002E000BF4FF0010C4DF804CD4FEA400292
:1010E0004FEA41037FEA226C18BF7FEA236C11D0DC
:1010F00001B052EA530C18BF90EA010F58BFB2EB8F
:10110000030088BFC81738BF6FEAE17018BF40F00E
:10111000010070477FEA226C02D15FEA402C05D1C2
:101120007FEA236CE4D15FEA412CE1D05DF8040B47
:10113000704700BF844608466146FFE70FB5FFF7DA
:10114000C9FF002848BF10F1000F0FBD4DF808ED92
:10115000FFF7F4FF0CBF012000205DF808FB00BF83
:101160004DF808EDFFF7EAFF34BF012000205DF8DD
:1011700008FB00BF4DF808EDFFF7E0FF94BF01202A
:1011800000205DF808FB00BF4DF808EDFFF7D2FF27
:1011900094BF012000205DF808FB00BF4DF808ED6A
:1011A000FFF7C8FF34BF012000205DF808FB00BF37
:1011B0004FEA4002B2F1FE4F0FD34FF09E03B3EB64
:1011C00012620DD94FEA002343F0004310F0004FA4
:1011D00023FA02F018BF404270474FF000007047FA
:1011E00012F1610F01D1420205D110F0004008BF99
:1011F0006FF0004070474FF0000070470348044B09
:10120000834202D0034B03B11847704754030020B8
:1012100054030020000000000548064B1B1AD90F9C
:1012200001EBA301491002D0034B03B118477047EB
:1012300054030020540300200000000010B5064CA9
:10124000237843B9FFF7DAFF044B13B10448AFF337
:1012500000800123237010BD540300200000000013
:1012600058D9000808B5054B1BB105490548AFF32F
:101270000080BDE80840FFF7CFBF00BF00000000BE
:101280005803002058D9000808B50268034B9A4259
:1012900000D008BD02F082FBFBE700BF0010004059
:1012A00072B6FEE710B596B00CAC2822002120469D
:1012B00008F042FF00230793089309930A930B93C6
:1012C00001930293039304930593069301220C92D6
:1012D0004FF480330D9310920222139214934FF423
:1012E000E0131593204602F081FBD0B90F2307933A
:1012F00002210891002309934FF480620A920B9314
:1013000007A802F0A5FD70B9122301934FF4004322
:1013100003930023069301A802F084FE28B916B0B7
:1013200010BDFFF7BDFFFFF7BBFFFFF7B9FF08B523
:1013300002F022FBFFF7B6FF00F016F804F0BCFB4A
:1013400004F0A0FA00F028F904F09AF906F0F6FE8D
:1013500007F056FB07F048F906F04EFB04F076FE66
:1013600006F05CFBFEE700002DE9F04F89B004AC0D
:10137000002604960596069607965E4B9A6942F0FB
:1013800010029A619A6902F010020092009A9A691A
:1013900042F020029A619A6902F020020192019AB9
:1013A0009A6942F004029A619A6902F00402029278
:1013B000029A9A6942F008029A619B6903F0080355
:1013C0000393039BDFF83081012243F68C71404682
:1013D00002F0D3FF32464321404602F0CEFFDFF851
:1013E0001CB132464EF20101584602F0C6FFDFF84A
:1013F000109132464FF6E071484602F0BEFF0122DE
:101400004FF48071584602F0B8FF012204213D4894
:1014100002F0B3FF01220821484602F0AEFF4FF46C
:101420006E530493012505950695032707972146DA
:10143000404602F083FE4323049305954FF0020AD1
:10144000CDF818A007972146404602F077FE0C23FE
:10145000049311230593069607972146404602F010
:101460006DFE4EF2010304930595CDF818A0079781
:101470002146584602F062FE4FF6E073049305954C
:10148000CDF818A007972146484602F057FE4FF4C2
:10149000807304930595069507972146584602F0F8
:1014A0004DFE4FF48063049305950695CDF81CA07E
:1014B0002146404602F042FE04230493059506951A
:1014C000079721460F4802F039FE0823049305953B
:1014D000069507972146484602F030FE10230493F4
:1014E000059606962146484602F028FE09B0BDE85A
:1014F000F08F00BF001002400010014000080140C2
:10150000000C014000140140FEE7FEE7FEE7FEE7A5
:10151000FEE7704708B5024802F0F2FF08BD00BFC1
:10152000D01D002008B5024801F056F808BD00BFE4
:10153000541A002008B5024804F030FE08BD00BF70
:10154000481E002000B583B0114B9A6942F0010299
:101550009A619A6902F001020092009ADA6942F0F7
:101560008052DA61DB6903F080530193019B002212
:101570000F216FF0010003F07FF9064A536823F052
:10158000E06343F08063536003B05DF804FB00BF89
:10159000001002400000014008B500220F49104829
:1015A00003F089F970B90F490D4803F09BF960B950
:1015B0000D490B4803F09FFF50B9094803F099F912
:1015C00048B908BDFFF76CFEEDE7FFF769FEEFE7EE
:1015D000FFF766FEF1E7FFF763FEF2E73400002055
:1015E00070030020380100205000002012230B80DF
:1015F000004870472000002004230B8000487047FB
:101600001C000020002393421ED200B510E00CF114
:10161000370C01F813C000014FEA430C0CF1010C28
:101620004FF0000E01F80CE00133DBB2934209D217
:101630004FEA107CB0F1204FE9D20CF1300C01F8E8
:1016400013C0E8E75DF804FB7047000038B50B4BAA
:10165000D3F8E807D3F8EC47D3F8F037C01800D137
:1016600038BD074D08222946FFF7CCFF042205F1BB
:1016700010012046FFF7C6FFF2E700BF00F0FF1F92
:101680000200002008B51A230B80FFF7DFFF014896
:1016900008BD00BF0000002008B50A4628B905496A
:1016A000054803F07EFD034808BD0249024803F0E7
:1016B00078FDF8E73406002070D9000810B50A4616
:1016C000034C2146034803F06CFD204610BD00BFCB
:1016D0003406002088D9000808B50A4628B905490B
:1016E000054803F05EFD034808BD0249024803F0C7
:1016F00058FDF8E7340600209CD9000808B50A46D2
:1017000028B90549054803F04CFD034808BD0249C6
:10171000024803F046FDF8E734060020A8D9000887
:10172000002070470020704738B5044603F0C6FF1C
:10173000044D2146284603F0EDFE284603F009FF3C
:10174000002038BD7003002010B5064C0022064969
:10175000204603F0D7FE0549204603F0DBFE0020BB
:1017600010BD00BF7003002034080020341000209A
:10177000094BD3F8B832D3F814320BB101207047BB
:1017800010B5054C0A460146204603F0BBFE204634
:1017900003F0C6FE10BD00BF7003002010B5084660
:1017A000144691B2FFF7E4FF204610BD044BD3F876
:1017B000B8321BB1D3F81402C0B270470020704792
:1017C00070030020022805D8DFE800F005040200BD
:1017D000012070470220704702680E4B9A4200D0E9
:1017E000704700B583B003F5DA33DA6942F40002DA
:1017F000DA61DB6903F400030193019B00220521F8
:10180000142003F039F8142003F046F803B05DF813
:1018100004FB00BF005C004008B500F52671D0F85D
:10182000D40203F07EF808BD08B501EB810300EB9C
:10183000C303D3F86421D0F8D40203F09FF808BDA5
:1018400008B501EB810300EBC3035A6AD0F8D40258
:1018500003F0DAF808BD08B5D0F8D40203F07BF93C
:1018600008BD10B504468379022B09D10121D4F8B3
:10187000D40203F059F9D4F8D40203F02DF910BDC5
:10188000FFF70EFDF2E7000010B50446D0F8D402D1
:1018900003F04DF9A37A23B1024A136943F006031A
:1018A000136110BD00ED00E008B5D0F8D40203F0DC
:1018B00047F908BD10B504461D48C0F8D442C4F825
:1018C000C0021C4B036008230371022383710023B1
:1018D0008372C372037300F023F930BB1823002214
:1018E0001146D4F8C00201F092F85823002280215A
:1018F000D4F8C00201F08BF8C02300228121D4F873
:10190000C00201F084F84FF4887300220121D4F85A
:10191000C00201F07CF84FF4807300228221D4F8D9
:10192000C00201F074F8002010BDFFF7B9FCD5E744
:10193000541A0020005C004008B5D0F8C00200F046
:1019400063F9FFF73FFF08BD08B594461A466346A2
:10195000D0F8C00200F018FFFFF734FF08BD08B54B
:10196000D0F8C00200F052FFFFF72CFF08BD08B509
:10197000D0F8C00200F0CCFFFFF724FF08BD08B587
:10198000D0F8C00201F004F8FFF71CFF08BDD0F842
:10199000C03211F0800F08D101F07F0101EB81010D
:1019A00003EBC10393F85201704701F07F0101EB93
:1019B000810103EBC103987C704708B5D0F8C002E1
:1019C00000F0F7FDFFF7FEFE08BD08B5D0F8C00235
:1019D00000F078FFFFF7F6FE08BD08B5D0F8C002AA
:1019E00000F04AFFFFF7EEFE08BD08B5D0F8C002D0
:1019F00000F05FFF08BD0000004870473418002069
:101A00007047704738B512F4804F44D00468B4F87A
:101A100050309BB291F800C003EBCC03023304EBCF
:101A20004304B4F80044C4F309048B69A34228D3E7
:101A30001B1B8B618B697BB9056835F82C309BB219
:101A400023F4804323F0700383F4005343F40043F2
:101A500043F0800325F82C3012F0400F0ED00268BE
:101A60000D7832F825309BB223F4E04323F0700365
:101A700043F4004343F0C00322F8253024B9204644
:101A800038BD00238B61D5E723460A894969006880
:101A900001F05AFFF3E70468B4F850309BB291F8B4
:101AA00000C003EBCC03063304EB4304B4F800445A
:101AB000C4F309048B69A3422FD31B1B8B618B6971
:101AC0007BB9056835F82C309BB223F4804323F0B2
:101AD000700383F4005343F4004343F0800325F87C
:101AE0002C3012F0400F0FD1026891F800C032F88C
:101AF0002C309BB223F4E04323F0700343F4004303
:101B000043F0C00322F82C30002CB8D023464A8979
:101B10004969006801F018FFB1E700238B61CEE747
:101B200038B500286ED0044690F89132A3B1032353
:101B300084F8913200236371206800F094FF2346FB
:101B400053F8040B0ECB00F07EFF50B1022384F853
:101B500091320125284638BD80F89032FFF73CFECF
:101B6000E5E70021206800F088FF0346A8B9024697
:101B70002079904216D902EB820104EBC1010120C9
:101B800048740A740020C87408624862013202EB8B
:101B90008201C9006050D2B2EAE7022384F8913290
:101BA0000125D7E7984217D903EB830204EBC20261
:101BB000002182F8511182F8503182F85311C2F895
:101BC0006011C2F8641103EB830204EBC202C2F895
:101BD00068110133DBB2E5E7234653F8040B0ECB63
:101BE00000F04DFF054620B1022384F89132012513
:101BF000B0E700236373012384F89132206801F079
:101C00009DFAA7E70125A5E738B590F89032012B9A
:101C100011D00446012580F89052006800F01AFFA8
:101C200029462046FFF7EDFE206801F085FA0020E6
:101C300084F8900238BD0220FCE770B505460C46DA
:101C4000164612F0400F00F00E810268B2F85030D4
:101C50009BB2097803EBC103023302EB4302B2F8F3
:101C60000024C2F30902A36993424ED99B1AA361CF
:101C7000A369002B66D16378002B49D12B68B3F898
:101C8000502092B2134403EB0113B3F80424C2F3BF
:101C90000902A3F80424B3F804246FEA42426FEA6D
:101CA000524292B2A3F804242B686278002A3CD1F5
:101CB000B3F8502092B21344227803EB0213B3F826
:101CC0000C24C2F30902A3F80C24B3F80C246FEA25
:101CD00042426FEA524292B2A3F80C24217828467D
:101CE000FFF7AEFD16F4804F41D02A68217832F814
:101CF00021309BB223F4E04323F0700343F44043CC
:101D000043F0800322F8213031E00023A361AFE7E4
:101D1000012BC9D12B68B3F8502092B2134403EBC6
:101D200001130022A3F80424BEE7012AD6D1B3F898
:101D3000502092B21344227803EB02130022A3F83E
:101D40000C24CBE716F4804F0DD0286830F82130F2
:101D50009BB223F4E04323F0700343F4404343F089
:101D6000800320F8213094F82430012B12D02A6807
:101D7000217832F821309BB223F4E04323F0400372
:101D800083F0300343F4004343F0800322F8213012
:101D9000002070BD636913446361E3691344E36128
:101DA000216A2369994224D3C91A21626278002AE0
:101DB00044D12A68B2F8501089B20A44217802EB63
:101DC0000112B2F80414C1F30901A2F804143E2B65
:101DD0001BD9580913F01F0F00D10138B2F80414B1
:101DE00089B2800280B2014341F40041A2F8041498
:101DF00026E021B9002384F824301346D6E70023D7
:101E000084F8243023620B46D0E74BB9B2F80414AF
:101E10006FEA41416FEA514189B2A2F804140FE020
:101E2000590813F0010F00D00131B2F8040480B258
:101E3000890289B20143A2F8041401E0012A06D004
:101E40009BB222896169286801F080F98FE72A68CE
:101E5000B2F8501089B20A44217802EB011299B20B
:101E6000A2F80414ECE70268B2F850309BB209788B
:101E700003EBC103063302EB4302B2F80024C2F3C2
:101E80000902A36993424FD39B1AA361A369002B54
:101E900067D16378002B4AD12B68B3F8502092B2F7
:101EA000134403EB0113B3F80424C2F30902A3F8AB
:101EB0000424B3F804246FEA42426FEA524292B219
:101EC000A3F804242B686278002A3DD1B3F850208F
:101ED00092B21344227803EB0213B3F80C24C2F33A
:101EE0000902A3F80C24B3F80C246FEA42426FEA0B
:101EF000524292B2A3F80C2421782846FFF7A0FCA6
:101F000016F4804F7FF433AF2A68217832F82130FD
:101F10009BB223F4E04323F0700343F4404343F0C7
:101F2000800322F8213022E70023A361AEE7012BD2
:101F3000C8D12B68B3F8502092B2134403EB0113BD
:101F40000022A3F80424BDE7012AD5D1B3F850201C
:101F500092B21344227803EB02130022A3F80C245C
:101F6000CAE716F4804F0DD1286830F821309BB2B3
:101F700023F4E04323F0700343F4404343F0800331
:101F800020F8213094F82430012B7FF4F0AE6369FF
:101F900013446361E3691344E361216A236999424D
:101FA00024D3C91A21622A686178002943D1B2F882
:101FB000501089B20A44217802EB0112B2F80C14D5
:101FC000C1F30901A2F80C143E2B1BD9580913F0D8
:101FD0001F0F00D10138B2F80C1489B2800280B210
:101FE000014341F40041A2F80C1426E021B900237A
:101FF00084F824301346D6E70023236284F8243083
:102000000B46D0E74BB9B2F80C146FEA41416FEAC6
:10201000514189B2A2F80C140FE0590813F0010FD6
:1020200000D00131B2F80C0480B2890289B20143B8
:10203000A2F80C1401E0012906D09BB26289616903
:10204000286801F083F892E6B2F8501089B20A4489
:10205000217802EB011299B2A2F80C14EDE72DE9F8
:10206000F04105462868B0F8443013F4004F00F002
:102070009D82B0F84440A3B214F00F0440F0DE801B
:1020800013F0100F6BD003889AB213F4006F40F076
:10209000998012F4004FE5D0038823F070031B05EC
:1020A0001B0D43F0800303802868B0F850309BB2CA
:1020B00095F8502103EBC203063300EB4303B3F85A
:1020C0000034C3F30903C5F86C318BB1D5F8641142
:1020D00071B1B5F8562101F037FCD5F86431D5F867
:1020E0006C211344C5F8643100212846FFF79CFB9E
:1020F0002A68138899B213F4006FB3D101F44051E8
:10210000B1F5405FAED0B2F850309BB21A44B2F88D
:102110000C34C3F30903A2F80C34D5F860313E2B1C
:1021200073D9590913F01F0F00D10139B2F80C34DB
:102130009BB2890289B20B4343F40043A2F80C34EA
:102140002A6813889BB223F4804323F0700383F43E
:10215000405343F4004343F08003138082E7038835
:102160009BB223F4E14323F070036FEA43436FEA29
:1021700053439BB203802A68B2F850309BB2297C4B
:1021800003EBC103023302EB4302B2F80034C3F3A2
:102190000903EB626A6A1A446A6200212846FFF763
:1021A0004FFB6B7B002B3FF45DAFAB6A002B7FF4E2
:1021B00059AF6B7B2A6843F08003A2F84C300023B0
:1021C0006B734FE7B0F850309BB295F8502103EB9A
:1021D000C203063300EB4303B3F80034C3F309032F
:1021E000C5F86C31B5F8562105F5267101F0ACFB48
:1021F0002A68138823F070031B051B0D43F080032E
:1022000013802846FFF708FB2CE74BB9B2F80C34D3
:102210006FEA43436FEA53439BB2A2F80C348FE753
:10222000590813F0010F00D00131B2F80C3498B204
:102230008B029BB20343A2F80C3481E730F82430C0
:102240009EB213F4004F50D116F0800F3FF40AAF46
:1022500004EB8401C900103129442A6832F8243083
:102260009BB223F4E14323F070036FEA43436FEA28
:1022700053439BB222F8243004EB840305EBC303E1
:10228000DB7C012B00F0F28016F4807F40F0898126
:102290002868B0F850309BB204EB840205EBC20210
:1022A000167C03EBC603023300EB4303B3F80034A0
:1022B000C3F30903621C02EB820255F832209A42F2
:1022C00040F25281671C07EB8707D21A45F8372086
:1022D000621C02EB820255F83220002A40F04B814A
:1022E00031462846FFF7ACFABCE630F8243023F03C
:1022F00070031B051B0D43F0800320F8243004EB12
:102300008401C90001F5A87105EB010804EB840301
:1023100005EBC30393F85C31002B42D12868B0F879
:1023200050309BB204EB840205EBC20292F85021BC
:1023300003EBC203063300EB4303B3F80074C7F3A7
:10234000090717BB04EB840305EBC303D3F86C2127
:102350003A44C3F86C21D3F864213A44C3F86421A9
:10236000D3F868313BB104EB840305EBC303D3F826
:1023700060319F4275D204EB840305EBC30393F8ED
:1023800050112846FFF750FA5EE704EB840105EB95
:10239000C1013B46B1F85621D1F8641101F0D4FADD
:1023A000D0E704EB840305EBC30393F85331022B0E
:1023B00035D0296804EB840205EBC20292F8500183
:1023C00031F820309BB223F4E04323F0700343F450
:1023D000004343F0C00321F82030286892F85021D0
:1023E00030F8223013F4804F20D0B0F850309BB238
:1023F00003EBC203023300EB4303B3F80074C7F3EB
:102400000907002F9ED004EB840105EBC1013B4678
:10241000B1F85821D1F8641101F096FA92E73246EA
:1024200041462846FFF7EEFA07468BE7B0F85030F2
:102430009BB203EBC203063300EB4303B3F8007413
:10244000C7F30907002F3FF47DAF04EB840105EBD0
:10245000C1013B46B1F85A21D1F8641101F074FA78
:1024600070E74146286800F084FEEDE6631C03EB4C
:102470008303DB000022EA5004EB840305EBC30373
:102480001B7F1BB316F0400F3BD004EB840305EB1E
:10249000C3035B7C1BBB2B68B3F8502092B2134480
:1024A00004EB840205EBC202127C03EB0213B3F8C7
:1024B0000424C2F30902A3F80424B3F804246FEA45
:1024C00042426FEA524292B2A3F8042404EB84041D
:1024D00005EBC404217C2846FFF7B2F9C2E5012BC5
:1024E000F4D12B68B3F8502092B2134404EB840269
:1024F00005EBC202127C03EB02130022A3F80424B2
:10250000E4E72B6804EB840205EBC202527CD2B9EB
:10251000B3F8502092B2134404EB840205EBC202DC
:10252000127C03EB0213B3F80C24C2F30902A3F8E4
:102530000C24B3F80C246FEA42426FEA524292B282
:10254000A3F80C24C2E7012AC0D1B3F8502092B2FC
:10255000134404EB840205EBC202127C03EB02136A
:102560000022A3F80C24B1E7621C02EB8202D20025
:102570000027AF50ACE604EB840205EBC202566ABA
:102580001E445662013404EB840205EBC202526819
:1025900004EB840405EBC4041344636000F0E9FD1C
:1025A00060E532462846FFF748FB5BE50020BDE8C2
:1025B000F08190F89032012B0CD010B50446012325
:1025C00080F890324173006800F0B0FD002084F87C
:1025D000900210BD0220704710B584B00446006818
:1025E00000F0AEFD10F4004F20D110F4806F21D127
:1025F00010F4804F2FD110F4005F37D110F4805FBA
:102600003ED110F4006F40F0878010F4007F40F05E
:10261000AE8010F4807F27D02268B2F844309BB29D
:1026200023F480739BB2A2F844301DE02046FFF7EC
:1026300016FD19E02268B2F844309BB223F480639F
:102640009BB2A2F844302046FFF70BF90021204648
:10265000FFF7AFFF08E02268B2F844309BB223F4E2
:1026600080439BB2A2F8443004B010BD2268B2F897
:1026700044309BB223F400539BB2A2F84430F3E7FA
:102680002268B2F840309BB223F004039BB2A2F858
:1026900040302268B2F840309BB223F008039BB26E
:1026A000A2F840302046FFF7FFF82268B2F8443025
:1026B0009BB223F480539BB2A2F84430D4E7226843
:1026C00032F8231004AA02EB430222F8101C013353
:1026D000DBB2072BF3D92268B2F840309BB243F04B
:1026E0000103A2F840302268B2F840309BB223F0D8
:1026F00001039BB2A2F840302368B3F8442012F4DF
:10270000806FF9D0B3F8442092B222F4806292B282
:10271000A3F8442000230BE00023DAE7226804A991
:1027200001EB430131F8101C22F823100133DBB216
:10273000072BF3D92268B2F840309BB243F008036C
:10274000A2F840302268B2F844309BB223F4006310
:102750009BB2A2F844302268B2F840309BB243F0FA
:102760000403A2F840302046FFF78EF87CE7226889
:10277000B2F844309BB223F400739BB2A2F8443009
:102780002046FFF768F86FE710B50446084611F0D9
:10279000800F26D101F0070C0CEB8C0E4FEACE0E09
:1027A0000EF5A87E04EB0E010CEB8C0C04EBCC0CAC
:1027B0004FF0000E8CF851E100F0070008700A613C
:1027C000CB70022B1DD094F89032012B1CD001232A
:1027D00084F89032206800F063F9002084F89002B9
:1027E00010BD01F0070C0CEB8C01C9001031214425
:1027F0000CEB8C0C04EBCC0C4FF0010E8CF811E0C0
:10280000DAE700230B71DEE70220E9E710B50446A2
:102810000A4611F0800F1FD101F0070000EB800382
:10282000DB0003F5A873E11800EB800004EBC000A7
:10283000002380F8513102F007020A7094F89032B8
:10284000012B17D0012384F89032206800F00DFB93
:10285000002084F8900210BD01F0070000EB800317
:10286000DB001033E11800EB800004EBC000012313
:102870004374E0E70220EEE710B501F0070C0CEB23
:102880008C01C90001F5A8710CEB8C0E00EBCE0E8B
:10289000CEF86421CEF868310024CEF86C418EF871
:1028A00051418EF850C10144006800F062FC20469E
:1028B00010BD01F0070101EB810100EBC100D0F870
:1028C0006C01704738B501F0070C0CEB8C01C900A6
:1028D00010310CEB8C0E00EBCE0ECEF824200CF158
:1028E000010202EB820440F8343001258EF83450A6
:1028F000CEF8303000EBC402002454608EF8115042
:102900008EF810C00144006800F033FC204638BD4A
:1029100038B501F007050279AA4235D304460B46C3
:1029200011F0800F1ED101EB8101C90001F5A871E2
:10293000014403EB830300EBC303002283F851211E
:1029400001238B700D7094F89032012B1ED001235F
:1029500084F89032206800F073FB7DB1002084F889
:10296000900238BD05EB8501C9001031014405EB2B
:10297000850300EBC30301225A74E1E704F52671D5
:10298000206800F0E1FBE9E70120EAE70220E8E740
:102990000B46017903F00F02914234D310B504467F
:1029A00013F0800F21D103F0070202EB8201C9006E
:1029B00001F5A871014402EB820200EBC202002083
:1029C00082F8510100228A7003F007030B7094F81B
:1029D0009032012B19D0012384F89032206800F046
:1029E00054FB002084F8900210BD03F0070202EBB4
:1029F0008201C9001031014402EB820200EBC202E5
:102A000001205074DEE7012070470220ECE711F04E
:102A1000800F0BD001F0070101EB8101C9001031DB
:102A2000084452B90273C3800020704701EB810152
:102A3000C90001F5A8710844F3E70122027303817C
:102A40001B0C4381F0E784B004A800E90E000020CD
:102A500004B0704703460020A3F844004FF43F42FF
:102A6000A3F840207047B0F8403023F47C535B0457
:102A70005B0CA0F84030002070470020704784B005
:102A8000844604A800E90E000123ACF84030002081
:102A9000ACF84000ACF84400ACF8500004B070470B
:102AA00010B5034691F800C030F82C2092B222F401
:102AB000EC4222F0700292B2C878032861D8DFE8B5
:102AC00000F0555C0258002048F2800E42EA0E02E7
:102AD00023F82C2091F800C033F82C2092B222F475
:102AE000E04222F0700242EA0C0242EA0E0223F8AF
:102AF0002C200A7B002A40F0DC804A78002A51D042
:102B0000B3F8502092B21A440C7802EB0412B1F8D8
:102B100006C04FEA5C0C4FEA4C0CA2F800C40C78DB
:102B200033F8242012F0400F0CD033F8242092B256
:102B300022F4E04222F0700242F4004242F0C0026D
:102B400023F82420CA78012A1DD0097833F82120DF
:102B500092B222F4E04222F0400282F0200242F4DB
:102B6000004242F0800223F8212017E142F4007273
:102B7000AAE742F4C0620020A6E742F48062002087
:102B8000A2E70120A0E7097833F8212092B222F4CD
:102B9000E04222F0400242F4004242F0800223F878
:102BA0002120FBE0B3F8502092B21A440C7802EBDB
:102BB0000412B1F806C04FEA5C0C4FEA4C0CA2F8C4
:102BC00008C4B3F8502092B21A440C7802EB0412F5
:102BD000B2F80CC4CCF3090CA2F80CC40C693E2C5E
:102BE00039D94FEA541E14F01F0F01D10EF1FF3EE8
:102BF000B2F80CC41FFA8CFC4FEA8E2E1FFA8EFE20
:102C00004CEA0E0C4CF4004CA2F80CC40C7833F8CF
:102C1000242012F4804F0CD033F8242092B222F4F6
:102C2000E04222F0700242F4404242F0800223F877
:102C30002420097869BB33F8212092B222F4804223
:102C400022F0700282F4405242F4004242F08002CC
:102C500023F82120A2E04CB9B2F80C446FEA4444B6
:102C60006FEA5444A4B2A2F80C44CFE74FEA540CE4
:102C700014F0010F01D00CF1010CB2F80C44A4B215
:102C80004FEA8C2C1FFA8CFC44EA0C04A2F80C448A
:102C9000BCE733F8212092B222F4804222F0700285
:102CA00082F4005242F4004242F0800223F82120D4
:102CB00074E0CA78022A72D00C7833F8242092B2D9
:102CC00022F4E24222F0700242F4004242F080021A
:102CD00023F82420B3F8502092B21A4491F800C08F
:102CE00002EB0C12B1F808C04FEA5C0C4FEA4C0C36
:102CF000A2F800C4B3F8502092B21A4491F800C070
:102D000002EB0C12B1F80AC04FEA5C0C4FEA4C0C13
:102D1000A2F808C44A78002A50D10C7833F824204D
:102D200012F4804F0CD033F8242092B222F4E04207
:102D300022F0700242F4404242F0800223F8242044
:102D40000C7833F8242012F0400F0CD033F82420F4
:102D500092B222F4E04222F0700242F4004242F0C9
:102D6000C00223F8242091F800C033F82C2092B23E
:102D700022F4804222F0700282F4405248F2800431
:102D8000224323F82C20097833F8212092B222F430
:102D9000E04222F04002224323F8212010BD0C78AB
:102DA00033F8242092B222F4E04222F0700242F47E
:102DB000014242F0800223F824208BE70C7833F89C
:102DC000242012F4804F0CD033F8242092B222F445
:102DD000E04222F0700242F4404242F0800223F8C6
:102DE00024200C7833F8242012F0400F0CD033F854
:102DF000242092B222F4E04222F0700242F4004217
:102E000042F0C00223F82420CA78012A1ED00C7890
:102E100033F8242092B222F4E04222F0400282F001
:102E2000200242F4004242F0800223F82420097874
:102E300033F8212092B222F4804222F0700242F450
:102E4000004242F0800223F82120A7E70C7833F8F3
:102E5000242092B222F4E04222F0400242F40042E6
:102E600042F0800223F82420E1E70B7B002B46D1BF
:102E70004B7813B30A7830F8223013F0400F0CD09F
:102E800030F822309BB223F4E04323F0700343F484
:102E9000004343F0C00320F822300A7830F8223093
:102EA0009BB223F4E04323F0400343F4004343F098
:102EB000800320F82230002070470A7830F8223052
:102EC00013F4804F0CD030F822309BB223F4E0434F
:102ED00023F0700343F4404343F0800320F8223092
:102EE0000A7830F822309BB223F4804323F0700339
:102EF00043F4004343F0800320F82230DBE74B78B3
:102F0000002B4ED10A7830F8223013F4804F0CD0C9
:102F100030F822309BB223F4E04323F0700343F4F3
:102F2000404343F0800320F822300A7830F8223002
:102F300013F0400F0CD030F822309BB223F4E04362
:102F400023F0700343F4004343F0C00320F8223021
:102F50000A7830F822309BB223F4E04323F0700368
:102F600043F4004343F0C00320F822300A7830F8DD
:102F700022309BB223F4804323F0700348F2800C8C
:102F800043EA0C0320F822300A7830F822309BB252
:102F900023F4E04323F0400343EA0C0320F82230FB
:102FA00089E70A7830F8223013F4804F0CD030F8DB
:102FB00022309BB223F4E04323F0700343F44043F8
:102FC00043F0800320F822300A7830F8223013F0E2
:102FD000400F0CD030F822309BB223F4E04323F0B2
:102FE000700343F4004343F0C00320F822300A7812
:102FF00030F822309BB223F4E04323F0700343F413
:10300000404343F0800320F822300A7830F8223021
:103010009BB223F4E04323F0400348F2800C43EAE0
:103020000C0320F822300A7830F822309BB223F4C7
:10303000804323F0700343EA0C0320F822303AE780
:103040004B788BB10A7830F822309BB223F4E043FE
:1030500023F0400383F0100343F4004343F0800364
:1030600020F82230002070470A7830F822309BB2D6
:1030700023F4804323F0700383F4805343F400432C
:1030800043F0800320F82230ECE70B7B002B4BD180
:103090004B7833B30A7830F8223013F0400F0CD05D
:1030A00030F822309BB223F4E04323F0700343F462
:1030B000004343F0C00320F82230CB78012B33D0FB
:1030C0000A7830F822309BB223F4E04323F0400327
:1030D00083F0200343F4004343F0800320F82230C0
:1030E00022E00A7830F8223013F4804F0CD030F808
:1030F00022309BB223F4E04323F0700343F44043B7
:1031000043F0800320F822300A7830F822309BB256
:1031100023F4804323F0700383F4405343F40043CB
:1031200043F0800320F822300020704711B980233B
:10313000A0F84C30002070470020704700207047F6
:10314000B0F8440080B270470020704701335B083C
:1031500000EB420000F5806008E00A7891F801C0B9
:1031600042EA0C2220F8042B0231013B002BF4D15F
:10317000704770B505460C464A78012A3BD00B7B58
:10318000002B40F0A6828B690A69934240F2848248
:103190009B1A8B61B5F850309BB22B44217803EB1E
:1031A0000113B3F80C14C1F30901A3F80C143E2A5F
:1031B00040F27682510912F01F0F00D10139B3F8A5
:1031C0000C2492B2890289B20A4342F40042A3F865
:1031D0000C24227835F822309BB223F4804323F06C
:1031E000700383F4405343F4004343F0800325F815
:1031F0002230002070BD8E6909698E4200D90E46CA
:10320000237B73B3E378022B4DD0236A9B1B23628D
:10321000217835F8213013F0400F00F0F581002AB5
:1032200040F0E281B5F850309BB22B4403EB011320
:10323000B3F80C24C2F30902A3F80C243E2E40F28A
:10324000BA81710916F01F0F00D10139B3F80C24AF
:1032500092B2890289B20A4342F40042A3F80C24D4
:10326000CBE1B6B23346E28861692846FFF76EFFCC
:10327000B5F850309BB22B44227803EB0213A3F82D
:103280000464227835F822309BB223F4E04323F023
:10329000400383F0300343F4004343F0800325F8F8
:1032A00022300020A6E7236A994280F066812278C6
:1032B00035F822309BB223F4E04323F0700343F44B
:1032C000014343F0800325F82230236A9B1B2362CD
:1032D000227835F8223013F0400F00F0A780637891
:1032E000B3BBB5F850309BB22B4403EB0213B3F8D9
:1032F0000C24C2F30902A3F80C243E2E0FD9710945
:1033000016F01F0F00D10139B3F80C2492B28902D4
:1033100089B20A4342F40042A3F80C241AE04EB9E1
:10332000B3F80C246FEA42426FEA524292B2A3F819
:103330000C240FE0720816F0010F00D00132B3F830
:103340000C1489B2920292B20A43A3F80C2401E051
:10335000012B30D0B3B2628961692846FFF7F6FECF
:10336000636933446361236A226993422DD99B1BAD
:1033700023626378002B45D1B5F850309BB22B44C3
:10338000227803EB0213B3F80424C2F30902A3F872
:1033900004243E2E1DD9710916F01F0F00D10139EA
:1033A000B3F8042492B2890289B20A4342F400427B
:1033B000A3F8042428E0B5F850309BB22B4403EB6B
:1033C0000213B2B2A3F80C24C4E7002222621E4604
:1033D000CFE74EB9B3F804246FEA42426FEA524293
:1033E00092B2A3F804240FE0720816F0010F00D087
:1033F0000132B3F8041489B2920292B20A43A3F8DC
:10340000042401E0012B06D0B3B222896169284669
:10341000FFF79CFE35E7B5F850309BB22B4422787D
:1034200003EB0213B2B2A3F80424EDE76378B3BB55
:10343000B5F850309BB22B4403EB0213B3F80424CD
:10344000C2F30902A3F804243E2E0FD9710916F025
:103450001F0F00D10139B3F8042492B2890289B256
:103460000A4342F40042A3F804241AE04EB9B3F828
:1034700004246FEA42426FEA524292B2A3F8042453
:103480000FE0720816F0010F00D00132B3F80414F7
:1034900089B2920292B20A43A3F8042401E0012BFC
:1034A00030D0B3B2228961692846FFF74FFE6369C5
:1034B00033446361236A226993422DD99B1B2362A3
:1034C0006378002B45D1B5F850309BB22B4422785D
:1034D00003EB0213B3F80C24C2F30902A3F80C2483
:1034E0003E2E1DD9710916F01F0F00D10139B3F816
:1034F0000C2492B2890289B20A4342F40042A3F832
:103500000C2428E0B5F850309BB22B4403EB021397
:10351000B2B2A3F80424C4E7002222621E46CFE719
:103520004EB9B3F80C246FEA42426FEA524292B2AB
:10353000A3F80C240FE0720816F0010F00D001323E
:10354000B3F80C1489B2920292B20A43A3F80C2485
:1035500001E0012B06D0B3B2628961692846FFF70A
:10356000F5FD8EE6B5F850309BB22B44227803EB84
:103570000213B2B2A3F80C24EDE7217835F821202C
:1035800092B222F4E24222F0700242F4004242F08F
:10359000800225F82120B5F8502092B22A442178E3
:1035A00002EB01129BB2A2F8043422896169284619
:1035B000FFF7CCFD65E64EB9B3F80C246FEA424242
:1035C0006FEA524292B2A3F80C2416E0720816F089
:1035D000010F00D00132B3F80C1489B2920292B2FA
:1035E0000A43A3F80C2408E0B5F850309BB22B44F2
:1035F00003EB0113B2B2A3F80C24B3B26289616980
:103600002846FFF7A3FD3CE6B2BBB5F850309BB2AD
:103610002B4403EB0113B3F80424C2F30902A3F80B
:1036200004243E2E0FD9710916F01F0F00D1013965
:10363000B3F8042492B2890289B20A4342F40042E8
:10364000A3F8042421E04EB9B3F804246FEA4242FF
:103650006FEA524292B2A3F8042416E0720816F000
:10366000010F00D00132B3F8041489B2920292B271
:103670000A43A3F8042408E0B5F850309BB22B4469
:1036800003EB0113B2B2A3F80424B3B22289616937
:103690002846FFF75BFDF4E500228A611A4679E5CA
:1036A0004AB9B3F80C246FEA42426FEA524292B22E
:1036B000A3F80C248DE5510812F0010F00D0013160
:1036C000B3F80C2492B2890289B20A43A3F80C24FD
:1036D0007FE5CB78022B4DD0012B40F033818969F7
:1036E0002369994240F2EA80C91AA161F2B9B5F89A
:1036F000502092B22A44217802EB0112B2F804144D
:10370000C1F30901A2F804143E2B40F2DB805809F2
:1037100013F01F0F00D10138B2F8041489B28002EF
:1037200080B2014341F40041A2F804146278002AF7
:1037300040F0FA80B5F8502092B22A44217802EB8A
:103740000112B2F80C14C1F30901A2F80C143E2BBB
:1037500040F2D180590913F01F0F00D10139B2F89E
:103760000C349BB2890289B20B4343F40043A2F8A4
:103770000C342EE5F2B9B0F850309BB203440A780D
:1037800003EB0213B3F80424C2F30902A3F80424E0
:103790000A693E2A31D9510912F01F0F00D10139AF
:1037A000B3F8042492B2890289B20A4342F4004277
:1037B000A3F804246378002B51D1B5F850309BB2A4
:1037C0002B44227803EB0213B3F80C24C2F3090252
:1037D000A3F80C2422693E2A28D9510912F01F0FA0
:1037E00000D10139B3F80C2492B2890289B20A439C
:1037F00042F40042A3F80C2433E04AB9B3F804249D
:103800006FEA42426FEA524292B2A3F80424D1E72F
:10381000510812F0010F00D00131B3F8042490B226
:103820008A0292B20243A3F80424C3E74AB9B3F868
:103830000C246FEA42426FEA524292B2A3F80C247F
:103840000FE0510812F0010F00D00131B3F80C2441
:1038500090B28A0292B20243A3F80C2401E0012B39
:103860001CD0E369002B3FF4B4AC227835F8223049
:1038700099B213F4804F1CD011F0400F3FF4A9AC63
:1038800035F822309BB223F4E04323F0700343F475
:10389000004343F0C00325F822309AE4B5F85030D5
:1038A0009BB22B44227803EB0213228AA3F80C2448
:1038B000D7E711F0400F7FF48CACE1E70023A36160
:1038C0000B4613E74BB9B2F804146FEA41416FEAB3
:1038D000514189B2A2F8041428E7590813F0010FE6
:1038E00000D00131B2F8040480B2890289B20143E8
:1038F000A2F804141AE74BB9B2F80C346FEA434348
:103900006FEA53439BB2A2F80C3462E4590813F0F7
:10391000010F00D00131B2F80C3498B28B029BB287
:103920000343A2F80C3454E4012A7FF452ACB5F8F6
:10393000502092B22A44217802EB01129BB2A2F8E5
:103940000C3446E4012055E410B45C0800EB42005E
:1039500000F5806007E030F8042B0A70C2F30722FC
:103960004A700231013C002CF5D113F0010F01D057
:1039700003880B7010BC704708B5074A136843F002
:1039800010031360032000F065FF0F2002F06EFBB0
:10399000FDF7D8FD002008BD00200240034A116851
:1039A000034B1B780B441360704700BF2C1D002095
:1039B00060000020014B1868704700BF2C1D0020DC
:1039C00082B0084B1B68084AA2FB03235B0A00FB7A
:1039D00003F3019300BF019B5A1E0192002BF9D102
:1039E00002B0704768000020D34D6210002800F03C
:1039F000F18170B582B00446036813F0010F2CD03A
:103A0000994B5B6803F00C03042B1DD0964B5B684D
:103A100003F00C03082B12D06368B3F5803F41D04C
:103A2000002B55D103F1804303F504331A6822F4C7
:103A300080321A601A6822F480221A6037E08A4BBA
:103A40005B6813F4803FE7D0874B1B6813F4003F9B
:103A500003D06368002B00F0BF81236813F0020FCE
:103A600075D0814B5B6813F00C0F5FD07E4B5B68A9
:103A700003F00C03082B54D02369002B00F08A803C
:103A80007A4B01221A60FFF795FF0546764B1B68BB
:103A900013F0020F75D1FFF78DFF401B0228F5D9F7
:103AA00003209EE1704A136843F480331360636817
:103AB00043B3FFF77FFF05466B4B1B6813F4003FD2
:103AC000CBD1FFF777FF401B6428F5D9032088E1AD
:103AD000B3F5A02F09D0644B1A6822F480321A6023
:103AE0001A6822F480221A60E1E703F18043A3F50B
:103AF0003C331A6842F480221A601A6842F4803219
:103B00001A60D4E7FFF756FF0546574B1B6813F4BE
:103B1000003FA2D0FFF74EFF401B6428F5D90320D9
:103B20005FE1514B5B6813F4803FA5D14E4B1B689E
:103B300013F0020F03D02369012B40F04F814A4A52
:103B4000136823F0F803616943EAC1031360236833
:103B500013F0080F33D0A369002B5CD0434B012234
:103B6000C3F88024FFF726FF05463F4B5B6A13F03E
:103B7000020F21D1FFF71EFF401B0228F5D90320B9
:103B80002FE1394A136823F0F803616943EAC1035E
:103B90001360DCE7354B00221A60FFF70BFF054688
:103BA000314B1B6813F0020FD1D0FFF703FF401B0E
:103BB0000228F5D9032014E10120FFF701FF236853
:103BC00013F0040F00F09680274BDB6913F0805F41
:103BD00034D1254BDA6942F08052DA61DB6903F0B7
:103BE00080530193019B0125214B1B6813F4807FB7
:103BF00026D0E368012B3DD0002B53D103F1804345
:103C000003F504331A6A22F001021A621A6A22F0DA
:103C100004021A6233E0154B0022C3F88024FFF738
:103C2000C9FE0546104B5B6A13F0020FC7D0FFF7C1
:103C3000C1FE401B0228F5D90320D2E00025D3E7BE
:103C40000B4A136843F480731360FFF7B3FE064614
:103C5000074B1B6813F4807FCBD1FFF7ABFE801BB3
:103C60006428F5D90320BCE0001002400000424265
:103C7000007000405F4A136A43F001031362E36877
:103C800033B3FFF797FE06465A4B1B6A13F0020F39
:103C90002FD1FFF78FFE801B41F288339842F3D972
:103CA00003209EE0052B09D0524B1A6A22F0010234
:103CB0001A621A6A22F004021A62E0E74D4B1A6A8D
:103CC00042F004021A621A6A42F001021A62D6E74E
:103CD000FFF770FE0646474B1B6A13F0020F08D031
:103CE000FFF768FE801B41F288339842F3D9032026
:103CF00077E0E5B9E369002B72D03E4A526802F0E2
:103D00000C02082A56D0022B17D03B4B00221A6611
:103D1000FFF750FE0446374B1B6813F0007F47D077
:103D2000FFF748FE001B0228F5D9032059E0314A6D
:103D3000D36923F08053D361DCE72F4B00221A664E
:103D4000FFF738FE05462B4B1B6813F0007F06D0AB
:103D5000FFF730FE401B0228F5D9032041E0236A1B
:103D6000B3F5803F1AD023494B6823F47413226AB9
:103D7000606A024313434B601F4B01221A66FFF730
:103D800019FE04461B4B1B6813F0007F0ED1FFF792
:103D900011FE001B0228F5D9032022E0154A5368C2
:103DA00023F40033A1680B435360DCE7002018E0E4
:103DB000002016E0012B16D00E4B5B6803F4803117
:103DC000226A914211D103F47013626A93420ED1B8
:103DD000002006E001207047012002E0012000E001
:103DE000002002B070BD0120FBE70120F9E70120AF
:103DF000F7E700BF00100240000042420F4B5B6833
:103E000003F00C02082A01D00D487047C3F3834227
:103E10000C49885C13F4803F0BD0084B5B68C3F3FC
:103E20004043094AD35C064A02FB00F0B0FBF3F0C2
:103E30007047064B03FB00F0704700BF00100240C4
:103E400000127A00E8DD0008E4DD000800093D000A
:103E5000002800F0A08070B50D460446524B1B6848
:103E600003F007038B420BD24F4A136823F007037A
:103E70000B431360136803F007038B4240F08D80FF
:103E8000236813F0020F17D013F0040F04D0474A31
:103E9000536843F4E0635360236813F0080F04D0C1
:103EA000424A536843F460535360404A536823F0D6
:103EB000F003A1680B435360236813F0010F31D066
:103EC0006368012B20D0022B25D0384A126812F0EB
:103ED000020F64D035494A6822F0030213434B6055
:103EE000FFF768FD0646314B5B6803F00C03626820
:103EF000B3EB820F16D0FFF75DFD801B41F28833D4
:103F00009842F0D9032045E0284A126812F4003F95
:103F1000E0D101203EE0254A126812F0007FD9D19D
:103F2000012037E0204B1B6803F00703AB420AD99E
:103F30001D4A136823F007032B431360136803F033
:103F40000703AB422DD1236813F0040F06D0174AA4
:103F5000536823F4E063E1680B435360236813F074
:103F6000080F07D0114A536823F46053216943EACC
:103F7000C1035360FFF742FF0C4B5B68C3F30313AD
:103F80000B4AD35CD8400B4B18600B4B186802F0FF
:103F90006DF8002070BD012070470120FAE7012074
:103FA000F8E70120F6E700BF0020024000100240C1
:103FB00000DE00086800002064000020014B186843
:103FC000704700BF6800002008B5FFF7F7FF044BFB
:103FD0005B68C3F30223034AD35CD84008BD00BF2B
:103FE00000100240F8DD00080F2303600B4B5A68F5
:103FF00002F0030242605A6802F0F00282605A68DE
:1040000002F4E062C2605B68DB0803F4E063036112
:10401000034B1B6803F007030B607047001002405E
:104020000020024070B582B00446036813F0010F0F
:1040300036D03F4BDB6913F0805F4AD13C4BDA69E5
:1040400042F08052DA61DB6903F080530193019BF7
:104050000125384B1B6813F4807F3CD0344B1B6A1E
:1040600013F4407313D0626802F440729A420ED087
:104070002F4A136A23F440702F490126C1F8406487
:104080000026C1F84064106213F0010F37D1284AAE
:10409000136A23F4407361680B431362002D3FD110
:1040A000236813F0020F06D0214A536823F44043DB
:1040B000A1680B435360236813F0100F35D01C4ADE
:1040C000536823F4800361690B435360002002B0FE
:1040D00070BD0025BDE7174A136843F48073136071
:1040E000FFF768FC0646134B1B6813F4807FB5D1BD
:1040F000FFF760FC801B6428F5D90320E7E7FFF792
:1041000059FC06460A4B1B6A13F0020FBFD1FFF79A
:1041100051FC801B41F288339842F3D90320D6E743
:10412000D36923F08053D361BAE70020CFE700BF03
:1041300000100240007000400000424270B582B0A2
:104140000024A446A8E0834DAB4214D00CD8A5F5BA
:104150008015AB420FD005F57025AB420BD0A5F50D
:104160008015AB421FD106E07B4DAB4203D005F575
:104170008035AB4217D18B68A3B1012B0DD04261C2
:10418000082410E0CC680EE0CC6804340BE0CC6866
:10419000083408E0CC680C3405E00261082402E031
:1041A000002400E00424BEF1FF0F41D806464FEA88
:1041B0008C0233680F25954023EA050304FA02F2C6
:1041C000134333604B6813F0805F63D0634B9A698D
:1041D00042F001029A619B6903F001030193019B84
:1041E0004FEA9C02951C5E4B53F825600CF00305CA
:1041F000AD000F23AB4026EA03065A4B98421ED06F
:1042000003F58063984200F0838003F58063984251
:1042100000F0808003F5806398427DD003F58063D1
:1042200098427BD003F58063984206D0062307E0CE
:10423000061DACF108029200BBE7052300E0002355
:10424000AB4033430232464D45F822304B6813F4FD
:10425000801F65D0444A936843EA0E0393604B681D
:1042600013F4001F62D0404AD36843EA0E03D360C0
:104270004B6813F4003F5FD03B4A536843EA0E0398
:1042800053604B6813F4803F5CD0374A136843EAAD
:104290000E0313600CF1010C0B6833FA0CF257D0CB
:1042A000012202FA0CF203EA020E32EA0303F1D110
:1042B0004B68122B3FF647AF122B3FF674AF01A5A8
:1042C00055F823F077410008854100088F41000828
:1042D000A1410008A7410008A7410008A741000824
:1042E000A7410008A7410008A7410008A74100080E
:1042F000A7410008A7410008A7410008A7410008FE
:10430000A7410008A741000889410008954100081D
:10431000012395E7022393E7032391E704238FE723
:10432000114A936823EA0E03936098E70E4AD36814
:1043300023EA0E03D3609BE70B4A536823EA0E037C
:1043400053609EE7084A136823EA0E031360A1E74F
:1043500002B070BD000022100000311000100240B9
:104360000000014000080140000401408368194238
:1043700001D001207047002070470AB101617047E9
:1043800009040161704730B40124056CAC40C56B71
:104390006C60046863604368102B05D00368996003
:1043A0000368DA6030BC704703689A600368D960BC
:1043B000F8E70000002838D010B4024601681C4B12
:1043C000994227D81B4B0B441B48A0FB03031B0936
:1043D0009B001364194BD363022382F821300868D1
:1043E0006FF30D10536894682343D4682343146912
:1043F00023435469234394692343D46923430343E8
:104400000B6000209063012382F8213082F82000A5
:1044100010BC70470A4B0B440748A0FB03031B0961
:104420009B001364074BD363D6E70120704700BF9E
:1044300007040240F8FFFDBFCDCCCCCC0000024009
:10444000F8FBFDBF0004024038B5044690F8200098
:10445000012831D0012084F8200094F8210001289F
:1044600004D0002384F82030022038BD022084F8D4
:1044700021000020A0632568286820F00100286042
:104480002046FFF780FFE36A5BB12268136843F0C0
:104490000E0313602268136843F0010313600020C9
:1044A000E3E72268136823F00403136022681368AB
:1044B00043F00A031360EDE70220D6E7034690F8C5
:1044C0002120022A06D004228263002280F82020C4
:1044D0000120704701680A6822F00E020A60016834
:1044E0000A6822F001020A60026CC06B012101FA25
:1044F00002F2426083F82110002083F82000704708
:1045000038B5C36B1A6804682568016C04238B40B6
:10451000134200F09B8015F0040F00F09780236891
:1045200013F0200F03D1236823F0040323600368F2
:104530009A4A934246D9783A934224D0143293420D
:1045400028D01432934227D01432934227D0143209
:10455000934227D01432934227D01432934227D06B
:1045600002F56272934226D01432934225D014325F
:10457000934224D01432934202D04FF4802203E0BD
:104580004FF4804200E00422854B5A60C36A03B1B5
:10459000984738BD4022F7E74FF48062F4E74FF4C4
:1045A0008042F1E74FF48022EEE74FF48002EBE720
:1045B0004FF08062E8E70422E6E74022E4E74FF4A8
:1045C0008062E1E7774A934224D01432934225D0A7
:1045D0001432934224D01432934224D014329342A2
:1045E00024D01432934224D01432934224D002F5C2
:1045F0006272934223D01432934222D014329342F7
:1046000021D01432934202D04FF4802203E04FF4C1
:10461000804200E00422644B5A60B7E74022FAE788
:104620004FF48062F7E74FF48042F4E74FF48022C2
:10463000F1E74FF48002EEE74FF08062EBE70422EF
:10464000E9E74022E7E74FF48062E4E702238B408A
:10465000134200F0AB8015F0020F00F0A780236832
:1046600013F0200F06D1236823F00A0323600123EF
:1046700080F821300368494A93424BD9783A9342F3
:1046800024D0143293422DD0143293422CD01432C1
:1046900093422CD0143293422CD0143293422CD01B
:1046A000143293422CD002F5627293422BD0143212
:1046B00093422AD01432934229D01432934202D02A
:1046C0004FF4003203E04FF4005200E00222344B7A
:1046D0005A60002380F82030836A002B3FF459AFE2
:1046E000984756E72022F2E74FF40072EFE74FF4C5
:1046F0000052ECE74FF40032E9E74FF40012E6E72E
:104700004FF00072E3E70222E1E72022DFE74FF4F7
:104710000072DCE7234A934224D01432934225D01E
:104720001432934224D01432934224D01432934250
:1047300024D01432934224D01432934224D002F570
:104740006272934223D01432934222D014329342A5
:1047500021D01432934202D04FF4003203E04FF4E0
:10476000005200E00222104B5A60B2E72022FAE722
:104770004FF40072F7E74FF40052F4E74FF40032C1
:10478000F1E74FF40012EEE74FF00072EBE7022280
:10479000E9E72022E7E74FF40072E4E780000240F7
:1047A00000040240080002400000024008238B4041
:1047B00013423FF4EEAE15F0080F3FF4EAAE236863
:1047C00023F00E032360026CC16B012303FA02F293
:1047D0004A60836380F82130002380F82030036B27
:1047E000002B3FF4D6AE9847D3E600BF002808DB85
:1047F0000901C9B200F1604000F5614080F8001382
:10480000704700F00F000901C9B2014B19547047FD
:1048100014ED00E000B500F00700C0F1070CBCF19A
:10482000040F28BF4FF0040C031D062B0FD9C31E25
:104830004FF0FF3E0EFA0CF021EA000199400EFA0B
:1048400003FE22EA0E0241EA02005DF804FB0023A7
:10485000EEE70000074AD36823F4E0631B041B0C57
:10486000000200F4E060034343F0BF6343F400330D
:10487000D360704700ED00E010B50446054BD868E2
:10488000C0F30220FFF7C6FF01462046FFF7AEFF48
:1048900010BD00BF00ED00E0002807DB00F01F02A4
:1048A000400901239340024A42F82030704700BF7C
:1048B00000E100E0704798B108B50346D0F8B402B3
:1048C00010B10020C3F8B40209B1C3F8B01201213D
:1048D00083F89C121A701846FCF7ECFF002008BD04
:1048E0000220704719B1C0F8B412002070470220AE
:1048F000704708B5FDF720F8002008BD08B5D0F8CE
:10490000B4322BB11B68984700B908BD0220FCE700
:104910000220FAE708B5D0F8B4325B689847002067
:1049200008BD38B5044600F52A75284600F035F96B
:104930000123C4F89432B4F8AE32C4F8983294F833
:10494000A81201F01F03012B08D0022B0BD07BB95A
:104950002946204600F0D0FA002038BD29462046DE
:1049600000F0FEFAF8E72946204600F029FBF3E7BD
:1049700001F080012046FCF7FAFFEDE738B5044668
:104980000D4691BB1346D0F89422032A03D0052A82
:1049900024D0084633E0D0F86011D0F86421914269
:1049A0000DD9891AC0F860118A4206D98AB219460F
:1049B000204600F037FC284621E092B2F7E7D0F815
:1049C000B4321B691BB190F89C22032A04D0204604
:1049D00000F030FC284612E09847F8E70021C0F8C4
:1049E0009412FCF7C4FF284609E0D0F8B4329B6962
:1049F00033B190F89C22032A04D19847002038BD97
:104A00000220FCE70220FAE738B504460D460029EB
:104A100053D11346D0F89422022A0CD0042A00D095
:104A20001AB980212046FCF7A2FF94F8A032012B8E
:104A30003ED0284638BD026A416A8A421BD8C26904
:104A4000B2FBF1F301FB13232BB9914203D8D0F849
:104A500098329A421CD3D4F8B432DB681BB194F874
:104A60009C22032A21D080212046FCF780FF20468B
:104A700000F0EBFBD9E7521A026292B2194600F03D
:104A8000BAFB00231A4619462046FCF7A6FFCCE7DE
:104A90000022114600F0AFFB0021C4F898120B462B
:104AA0000A462046FCF799FFBFE720469847DAE719
:104AB000002384F8A0322846BCE7D0F8B4325B6902
:104AC00033B190F89C22032A04D198470020B1E723
:104AD0000220AFE70220ADE770B504464023002274
:104AE0001146FCF731FF0125C4F858514026C4F89F
:104AF00064613346002280212046FCF725FFA56132
:104B0000666284F89C520023C4F894326360C4F84F
:104B1000A432D4F8B8322BB1D4F8B4325B68002197
:104B200020469847002070BD01740020704790F81F
:104B30009C3280F89D32042380F89C32002070471C
:104B400090F89C32042B01D00020704790F89D32E1
:104B500080F89C32F8E708B590F89C32032B01D01E
:104B6000002008BDD0F8B432DB69002BF8D098479C
:104B7000F6E70346002002E00130C0B201331A78A4
:104B8000002AF9D1704708B54B88012B00D008BD29
:104B9000C0F8A43200F04EFBF9E70B7803704B78B5
:104BA00043708B78CA7803EB022343800B794A79F0
:104BB00003EB022383808B79CA7903EB0223C38042
:104BC000704710B504468021FCF7D1FE0021204635
:104BD000FCF7CDFE10BD30B583B005460C46002372
:104BE000ADF806304A88130A013B062B00F2A48078
:104BF000DFE803F004182CA2A2869300D0F8B032AC
:104C00001B680DF10601007C9847BDF806201AB11B
:104C1000E388002B40F09480E388002B00F09A801A
:104C200003B030BD037C43B9D0F8B4329B6A0DF1B8
:104C30000600984702234370E7E7D0F8B432DB6AF6
:104C40000DF10600984702234370DEE7D2B2052A31
:104C500052D8DFE802F003101D2A3744D0F8B032F2
:104C60005B6823B10DF10601007C9847CDE7214632
:104C7000FFF7A7FFD4E7D0F8B0329B6823B10DF15E
:104C80000601007C9847C0E72146FFF79AFFC7E777
:104C9000D0F8B032DB6823B10DF10601007C9847F3
:104CA000B3E72146FFF78DFFBAE7D0F8B0321B69B2
:104CB00023B10DF10601007C9847A6E72146FFF7D6
:104CC00080FFADE7D0F8B0325B6923B10DF106018A
:104CD000007C984799E72146FFF773FFA0E7D0F8DB
:104CE000B0329B6923B10DF10601007C98478CE737
:104CF0002146FFF766FF93E72146FFF762FF8FE744
:104D0000037C33B9D0F8B4325B6B0DF106009847E1
:104D10007BE72146FFF755FF82E7037C43B9D0F8D4
:104D2000B4321B6B0DF106009847072343706CE704
:104D30002146FFF746FF73E72146FFF742FF6FE783
:104D40009A4228BF1A46ADF806200146284600F0D0
:104D500045FA61E7284600F06DFA61E738B5044688
:104D60008B88F3B9CB88E3B94B887F2B19D803F034
:104D70007F0590F89C32032B0CD080F89E52294678
:104D8000FCF71BFE204600F055FA35B1022384F8EB
:104D90009C3209E0FFF715FF06E0012384F89C32FE
:104DA00002E02046FFF70DFF38BD000038B504468D
:104DB0000D468978284B197001290ED890F89C323D
:104DC000022B0ED0032B21D02946FFF7FAFE224BEF
:104DD00019782046FFF79EFD02E02946FFF7F1FE15
:104DE00038BD81B14160032380F89C32FFF786FD16
:104DF000022803D0204600F01DFAF1E7294620469C
:104E0000FFF7DFFEECE700F015FAE9E789B1436848
:104E100099421DD0D9B2FFF77DFD0F4B1978616023
:104E20002046FFF76BFD02280DD0204600F002FA65
:104E3000D6E7022380F89C324160FFF76BFD2046E5
:104E400000F0F8F9CCE729462046FFF7BAFEC7E79D
:104E500000F0F0F9C4E700BF301D002008B5CB8892
:104E6000012B0AD190F89C32022B09D9032B11D1C6
:104E70000122011D00F0B2F901E0FFF7A2FE08BD1A
:104E80005BB23BB10146002341F8083F012200F02C
:104E9000A5F9F4E7FFF795FEF1E708B590F89C3225
:104EA000013B022B12D8CB88022B0CD10123C3600B
:104EB000D0F8A4320BB10323C360022200F10C012D
:104EC00000F08CF908BDFFF77CFEFBE7FFF779FEE9
:104ED000F8E708B590F89C32013B022B09D84B88C3
:104EE000012B00D008BD0023C0F8A43200F0A2F9C5
:104EF000F8E7FFF766FEF5E708B50B7803F0600307
:104F0000202B05D0402B03D043B1FFF75AFE03E01E
:104F1000D0F8B4329B689847002008BD4B78092B25
:104F20001BD8DFE803F011171A141A08051A0E0B24
:104F3000FFF751FEF0E7FFF711FFEDE7FFF736FF50
:104F4000EAE7FFF78BFFE7E7FFF7A7FFE4E7FFF7E5
:104F50001AFEE1E7FFF7BDFFDEE7FFF732FEDBE712
:104F600038B505460C460B7803F06003202B06D0BD
:104F7000402B04D01BB1FFF724FE002038BD95F86C
:104F80009C32013B022B16D82379012B0ED8D5F881
:104F9000B4329B68214628469847E388002BECD121
:104FA0000028EAD1284600F045F9E6E721462846E0
:104FB000FFF707FEE1E721462846FFF702FEDCE7A0
:104FC00070B505468B880C7804F06004202C07D05F
:104FD000DAB2402C04D05CB1FFF7F3FD002405E009
:104FE000D5F8B4329B68284698470024204670BD07
:104FF000202C09D04E78012E33D0032E0AD0002E5B
:1050000055D0FFF7DEFDF1E7D0F8B4329B68984742
:105010000446EBE790F89C32022B04D0032B11D00E
:10502000FFF7CFFDE2E70AB1802A03D12846FFF758
:10503000C8FDDBE71146FCF79AFC80212846FCF707
:1050400096FCD3E74B8823B91AB1802A01D0CB88CC
:105050001BB1284600F0EEF8C8E71146FCF787FCC4
:10506000F7E790F89C32022B04D0032B11D0FFF706
:10507000A8FDBBE70AB1802A03D12846FFF7A1FDAE
:10508000B4E71146FCF773FC80212846FCF76FFC5F
:10509000ACE74B88002BA9D112F07F0F03D1284633
:1050A00000F0C8F8A2E71146FCF769FCF7E790F8B2
:1050B0009C02022806D0032829D02846FFF781FD4C
:1050C000344693E70AB1802A13D113F0800F15D12B
:1050D00002F07F0202EB8202910001F5A8712944DF
:1050E000043100230B600222284600F077F8344692
:1050F0007CE72846FFF765FD344677E702F07F023C
:1051000002EB82029100103129440431E9E75BB2DD
:10511000002B1FDB02F00F0000EB800005EB80008E
:10512000D0F8580120B3002B27DB02F07F0303EBFC
:1051300083039C0004F5A8742C4404340AB1802A2B
:1051400024D10023236002222146284600F046F89D
:1051500034464BE702F00F0000EB800005EB8000C7
:1051600080690028DFD12846FFF72BFD34463DE754
:105170002846FFF726FD344638E702F07F0303EBAD
:1051800083039C0010342C440434D7E7114628468E
:10519000FCF7FDFB10B101232360D4E7002323605B
:1051A000D1E7D0B170B50D4616460446FFF7E1FCD5
:1051B000431C5B009BB233802B7003236B70022374
:1051C00007E001345A1CD2B2E8540233DBB20021AA
:1051D000A95420780028F4D170BD704708B5134653
:1051E0000222C0F89422C36103620A460021FCF740
:1051F000ECFB002008BD08B513460A460021FCF769
:10520000E4FB002008BD08B513460322C0F8942231
:10521000C0F85C31C0F860310A460021FCF7DDFBC4
:10522000002008BD08B513460A460021FCF7D5FB4F
:10523000002008BD08B50423C0F8943200231A46A4
:105240001946FCF7C2FB002008BD08B50523C0F8CD
:10525000943200231A461946FCF7BFFB002008BD14
:1052600010B5D0F8B842D0F8BC325BB194F8000267
:10527000FF2807D09B6894F8012221469847FF2316
:1052800084F80032002010BD43230380004870479B
:10529000B00000204323038000487047F400002042
:1052A00043230380004870476C0000200A230380DA
:1052B000004870477001002038B50446D0F8B85255
:1052C000FCF793FBC5F80C02D4F8B8324BB1D4F814
:1052D000BC32DB6805F50371D5F80402984700205D
:1052E00038BD0220FCE710B5D0F8B822D0F8C04293
:1052F000F2B101EB810300EB8303DB694BB101EBFE
:10530000810C04EBCC04246AB3FBF4FC04FB1C33D7
:1053100023B10023C2F81432002010BD01EB810339
:1053200000EB83030022DA611346FCF74EFBF3E740
:105330000220F2E7F0B583B006460C46D0F8B8720A
:1053400000238DF80730ADF804300B7813F06005BA
:1053500027D0202D53D1CA88DAB113F0800F0CD09A
:10536000D0F8BC329B68394660789847E288394665
:105370003046FFF733FF002544E04B7887F80032D2
:105380008B7987F80132CA883946FFF73CFF002540
:1053900038E0D0F8BC329B68002248789847002556
:1053A00030E04F780A2F10D00B2F1CD01FBB90F885
:1053B0009C32032B03D0FFF704FC022522E00222DB
:1053C00001A9FFF70BFF3D461CE090F89C32032B30
:1053D00003D0FFF7F6FB022514E001220DF10701CF
:1053E000FFF7FCFE0EE090F89C32032B0AD0FFF78B
:1053F000E8FB022506E0FFF7E4FB022502E0FFF7E9
:10540000E0FB0225284603B0F0BD38B504468121F3
:10541000FCF7A5FA0025E56201212046FCF79FFA7A
:10542000C4F86C5182212046FCF799FA2564D4F81F
:10543000B8324BB1D4F8BC325B689847D4F8B802A4
:10544000FCF7DEFAC4F8B852002038BD70B5044647
:10545000037CABBB4FF4007302228121FCF774FA8A
:105460000125E5624FF40073022229462046FCF72D
:105470006BFAC4F86C510823032282212046FCF702
:1054800063FA012323644FF40770FCF7B5FA05466D
:10549000C4F8B80268B3D4F8BC321B68984700233C
:1054A000C5F81432C5F81832267CCEB94FF4007313
:1054B000D5F8042201212046FCF78FFA304670BD52
:1054C000402302228121FCF73FFA0125E5624023B7
:1054D000022229462046FCF737FAC4F86C51CAE785
:1054E0004023D5F8042201212046FCF776FA002655
:1054F000E4E70126E2E719B1C0F8BC1200207047CA
:1055000002207047D0F8B832C3F80812C3F810224E
:1055100000207047D0F8B832C3F80412002070475A
:10552000D0F8B8229AB108B5D2F814320BB10120E4
:1055300008BD0123C2F81432D2F8103203639BB2C3
:10554000D2F808228121FCF740FA0020F0E702207F
:105550007047D0F8B82292B108B5037C43B94FF434
:105560000073D2F804220121FCF737FA002008BDAD
:105570004023D2F804220121FCF72FFAF6E702209B
:105580007047000010B503460C4A0D490D480068ED
:1055900040B10C4800680344521A934206D8094AA5
:1055A000136010BD0748084C0460F2E704F016FED3
:1055B0000C2303604FF0FF30F3E700BF00800120B1
:1055C00000100000341D0020E06000200120704722
:1055D00008B504F003FE162303604FF0FF3008BD4A
:1055E00008B54FF0FF31FFF7F3FFFEE770B50C464B
:1055F0001646002506E0AFF30080214601F8010BB6
:1056000001350C46B542F6DB304670BD4FF0FF3039
:1056100070474FF400534B600020704701207047E3
:105620000020704700B586464FF0000C604611E040
:10563000520082F00702D0B20133DBB2072B05D84B
:1056400042B2002AF4DB4000C0B2F5E70CF1010CD5
:105650001FFA8CFC8C4504D21EF80C3058400023F5
:10566000ECE75DF804FB000008B500224221192098
:1056700001F060F8014B186008BD00BFC41D002098
:1056800000B583B00020FFF7EFFF084B0193002324
:10569000009301234FF480720549064801F047FC4E
:1056A000054B186003B05DF804FB00BFC81D002067
:1056B000B8D9000849580008CC1D0020F8B50B687F
:1056C000402B26D805460C46134B1F680FB3134ECC
:1056D00042220021304604F02FFD22682946304640
:1056E00004F0B7FD2368A6F8403000230C4A314689
:1056F000384601F007F960B1094B1B684BB14FF018
:10570000E0234FF08052C3F8042DBFF34F8FBFF357
:105710006F8F0020F8BD00BFC41D0020801D002039
:105720007C1D0020F0B585B03B4BB3F84040042C05
:1057300044D9394B1E78AA2E48D1651E364FA9B2DE
:105740003846FFF76FFF7D5DA84247D1334B1E708F
:10575000314A517859709178D27842EA01225A80C0
:10576000052C44D9E2B2053AD2B22C4B1A71002A68
:105770003FD12A4B83F84050294B1868002844D069
:1057800000230A22254900F0F9FF012836D0254AD6
:105790000021254B186802F0EFFC204B5A8819793C
:1057A00093F840000290019100925B781F4A00211B
:1057B0001D48006802F0E0FC05B0F0BD23461C4A1D
:1057C00000211948006802F0D7FCF5E73346194A72
:1057D00000211548006802F0CFFCEDE70095034674
:1057E000154A00211048006802F0C6FCE4E70022D8
:1057F000BBE71249581D04F02CFDBAE7104A0021FE
:10580000094B186802F0B8FCC7E70E4A0021064BA6
:10581000186802F0B1FCC0E7801D0020381D002090
:105820007C5F002060DA0008E053002004DB000801
:10583000D0D90008F8D9000820DA0008841D00201B
:1058400098DA0008CCDA000808B5012808D04FF033
:10585000500383F31188BFF36F8FBFF34F8FFEE7C1
:10586000064B18680028FBD00022054901F0B1F86A
:105870000128F5D1FFF756FFF2E700BFC41D002055
:10588000801D002000B585B000230193029303938F
:105890004E484F4A02604FF4807282600373037572
:1058A0004FF46022C26143600B23036100F004FBEC
:1058B000002867D10123019302930723039301A9D1
:1058C000424800F051F900285FD10223019302936E
:1058D00001A93E4800F048F9002859D1032301935B
:1058E000029301A9394800F03FF9002853D104235D
:1058F000019302930DEB0301344800F035F90028C1
:105900004CD105230193029301A9304800F02CF9F2
:10591000002846D106230193029301A92B4800F0E9
:1059200023F9002840D107230193029301A92748B6
:1059300000F01AF900283AD108230193029301A933
:10594000224800F011F9002834D109230193029371
:1059500001A91E4800F008F978BB0E2301930A2321
:10596000029301A9194800F0FFF848BB0F230193E7
:105970000B23029301A9154800F0F6F818BB05B0F7
:105980005DF804FBFBF78CFC94E7FBF789FC9CE7D4
:10599000FBF786FCA2E7FBF783FCA8E7FBF780FC9C
:1059A000AFE7FBF77DFCB5E7FBF77AFCBBE7FBF75E
:1059B00077FCC1E7FBF774FCC7E7FBF771FCCCE7AA
:1059C000FBF76EFCD2E7FBF76BFCD8E7141E002058
:1059D0000024014070B588B000230493059306931A
:1059E000079302682E4B9A4201D008B070BD04465E
:1059F00003F56C439A6942F400729A619A6902F461
:105A000000720092009A9A6942F004029A619A69BF
:105A100002F004020192019A9A6942F010029A611E
:105A20009A6902F010020292029A9A6942F0080200
:105A30009A619B6903F008030393039BFE2304937D
:105A40000325059504AE31461648FEF777FB302353
:105A50000493059531461448FEF770FB04950595AF
:105A600031461248FEF76AFB1148124B03600023CF
:105A7000436083608022C2604FF4007202614FF481
:105A80000062426183614FF48053C361FEF792FC70
:105A900018B9074B23625C62A7E7FBF701FCF8E744
:105AA000002401400008014000100140000C0140AA
:105AB000D01D00200800024000B583B00A4B5A698F
:105AC00042F001025A615B6903F001030193019BFB
:105AD000002205210B20FEF7CFFE0B20FEF7DCFE97
